{"contracts/RealEstateContract.sol":{"RealEstateContract":{"abi":[{"anonymous":false,"inputs":[{"indexed":true,"internalType":"uint256","name":"id","type":"uint256"},{"indexed":false,"internalType":"string","name":"name","type":"string"},{"indexed":false,"internalType":"uint256","name":"price","type":"uint256"}],"name":"PropertyListed","type":"event"},{"anonymous":false,"inputs":[{"indexed":true,"internalType":"uint256","name":"propertyId","type":"uint256"},{"indexed":false,"internalType":"address","name":"buyer","type":"address"},{"indexed":false,"internalType":"uint256","name":"tokens","type":"uint256"}],"name":"TokensPurchased","type":"event"},{"inputs":[],"name":"getAllProperties","outputs":[{"components":[{"internalType":"uint256","name":"id","type":"uint256"},{"internalType":"address","name":"owner","type":"address"},{"internalType":"string","name":"name","type":"string"},{"internalType":"string","name":"location","type":"string"},{"internalType":"string","name":"imageUrl","type":"string"},{"internalType":"uint256","name":"price","type":"uint256"},{"internalType":"bool","name":"isAvailable","type":"bool"},{"internalType":"uint256","name":"tokenPrice","type":"uint256"},{"internalType":"uint256","name":"totalTokens","type":"uint256"},{"internalType":"uint256","name":"availableTokens","type":"uint256"}],"internalType":"struct RealEstateContract.Property[]","name":"","type":"tuple[]"}],"stateMutability":"view","type":"function"},{"inputs":[{"internalType":"uint256","name":"_propertyId","type":"uint256"}],"name":"getMyTokens","outputs":[{"internalType":"uint256","name":"","type":"uint256"}],"stateMutability":"view","type":"function"},{"inputs":[{"internalType":"string","name":"_name","type":"string"},{"internalType":"string","name":"_location","type":"string"},{"internalType":"string","name":"_imageUrl","type":"string"},{"internalType":"uint256","name":"_price","type":"uint256"},{"internalType":"uint256","name":"_totalTokens","type":"uint256"}],"name":"listProperty","outputs":[],"stateMutability":"nonpayable","type":"function"},{"inputs":[{"internalType":"uint256","name":"","type":"uint256"}],"name":"properties","outputs":[{"internalType":"uint256","name":"id","type":"uint256"},{"internalType":"address","name":"owner","type":"address"},{"internalType":"string","name":"name","type":"string"},{"internalType":"string","name":"location","type":"string"},{"internalType":"string","name":"imageUrl","type":"string"},{"internalType":"uint256","name":"price","type":"uint256"},{"internalType":"bool","name":"isAvailable","type":"bool"},{"internalType":"uint256","name":"tokenPrice","type":"uint256"},{"internalType":"uint256","name":"totalTokens","type":"uint256"},{"internalType":"uint256","name":"availableTokens","type":"uint256"}],"stateMutability":"view","type":"function"},{"inputs":[],"name":"propertyCount","outputs":[{"internalType":"uint256","name":"","type":"uint256"}],"stateMutability":"view","type":"function"},{"inputs":[{"internalType":"uint256","name":"_propertyId","type":"uint256"},{"internalType":"uint256","name":"_numberOfTokens","type":"uint256"}],"name":"purchaseTokens","outputs":[],"stateMutability":"payable","type":"function"},{"inputs":[{"internalType":"address","name":"","type":"address"},{"internalType":"uint256","name":"","type":"uint256"}],"name":"userTokens","outputs":[{"internalType":"uint256","name":"","type":"uint256"}],"stateMutability":"view","type":"function"}],"evm":{"bytecode":{"linkReferences":{},"object":"6080604052600060015534801561001557600080fd5b50611969806100256000396000f3fe6080604052600436106100705760003560e01c80638bf0af3e1161004e5780638bf0af3e14610106578063c361a33514610122578063f7b108081461014d578063f9f411d81461019357610070565b806308d32039146100755780631265d847146100b25780633d51402c146100db575b600080fd5b34801561008157600080fd5b5061009c60048036038101906100979190610f08565b6101d0565b6040516100a9919061148b565b60405180910390f35b3480156100be57600080fd5b506100d960048036038101906100d49190610e49565b61022a565b005b3480156100e757600080fd5b506100f0610486565b6040516100fd9190611379565b60405180910390f35b610120600480360381019061011b9190610f31565b6107fa565b005b34801561012e57600080fd5b50610137610a29565b604051610144919061148b565b60405180910390f35b34801561015957600080fd5b50610174600480360381019061016f9190610f08565b610a2f565b60405161018a9a999897969594939291906114a6565b60405180910390f35b34801561019f57600080fd5b506101ba60048036038101906101b59190610e0d565b610c48565b6040516101c7919061148b565b60405180910390f35b6000600260003373ffffffffffffffffffffffffffffffffffffffff1673ffffffffffffffffffffffffffffffffffffffff1681526020019081526020016000206000838152602001908152602001600020549050919050565b6000821161026d576040517f08c379a00000000000000000000000000000000000000000000000000000000081526004016102649061146b565b60405180910390fd5b600081116102b0576040517f08c379a00000000000000000000000000000000000000000000000000000000081526004016102a79061142b565b60405180910390fd5b600160008154809291906102c3906117ef565b9190505550600081836102d69190611674565b905060405180610140016040528060015481526020013373ffffffffffffffffffffffffffffffffffffffff1681526020018781526020018681526020018581526020018481526020016001151581526020018281526020018381526020018381525060008060015481526020019081526020016000206000820151816000015560208201518160010160006101000a81548173ffffffffffffffffffffffffffffffffffffffff021916908373ffffffffffffffffffffffffffffffffffffffff16021790555060408201518160020190805190602001906103ba929190610c6d565b5060608201518160030190805190602001906103d7929190610c6d565b5060808201518160040190805190602001906103f4929190610c6d565b5060a0820151816005015560c08201518160060160006101000a81548160ff02191690831515021790555060e08201518160070155610100820151816008015561012082015181600901559050506001547fb906962cbf3f3ecd490633cbf2018014c57107262f8d80f40a11ca0e8b31f2aa878560405161047692919061139b565b60405180910390a2505050505050565b6060600060015467ffffffffffffffff8111156104cc577f4e487b7100000000000000000000000000000000000000000000000000000000600052604160045260246000fd5b60405190808252806020026020018201604052801561050557816020015b6104f2610cf3565b8152602001906001900390816104ea5790505b5090506000600190505b60015481116107f25760008082815260200190815260200160002060405180610140016040529081600082015481526020016001820160009054906101000a900473ffffffffffffffffffffffffffffffffffffffff1673ffffffffffffffffffffffffffffffffffffffff1673ffffffffffffffffffffffffffffffffffffffff1681526020016002820180546105a6906117bd565b80601f01602080910402602001604051908101604052809291908181526020018280546105d2906117bd565b801561061f5780601f106105f45761010080835404028352916020019161061f565b820191906000526020600020905b81548152906001019060200180831161060257829003601f168201915b50505050508152602001600382018054610638906117bd565b80601f0160208091040260200160405190810160405280929190818152602001828054610664906117bd565b80156106b15780601f10610686576101008083540402835291602001916106b1565b820191906000526020600020905b81548152906001019060200180831161069457829003601f168201915b505050505081526020016004820180546106ca906117bd565b80601f01602080910402602001604051908101604052809291908181526020018280546106f6906117bd565b80156107435780601f1061071857610100808354040283529160200191610743565b820191906000526020600020905b81548152906001019060200180831161072657829003601f168201915b50505050508152602001600582015481526020016006820160009054906101000a900460ff1615151515815260200160078201548152602001600882015481526020016009820154815250508260018361079d91906116ff565b815181106107d4577f4e487b7100000000000000000000000000000000000000000000000000000000600052603260045260246000fd5b602002602001018190525080806107ea906117ef565b91505061050f565b508091505090565b600080600084815260200190815260200160002090508060060160009054906101000a900460ff16610861576040517f08c379a0000000000000000000000000000000000000000000000000000000008152600401610858906113cb565b60405180910390fd5b600082116108a4576040517f08c379a000000000000000000000000000000000000000000000000000000000815260040161089b9061144b565b60405180910390fd5b80600901548211156108eb576040517f08c379a00000000000000000000000000000000000000000000000000000000081526004016108e29061140b565b60405180910390fd5b8181600701546108fb91906116a5565b34101561093d576040517f08c379a0000000000000000000000000000000000000000000000000000000008152600401610934906113eb565b60405180910390fd5b8181600901600082825461095191906116ff565b9250508190555081600260003373ffffffffffffffffffffffffffffffffffffffff1673ffffffffffffffffffffffffffffffffffffffff168152602001908152602001600020600085815260200190815260200160002060008282546109b8919061161e565b925050819055506000816009015414156109ea5760008160060160006101000a81548160ff0219169083151502179055505b827faf357506555a8fdf38c81d9a8fa2c6bca372e817f179cf596c9645902a927aea3384604051610a1c929190611350565b60405180910390a2505050565b60015481565b60006020528060005260406000206000915090508060000154908060010160009054906101000a900473ffffffffffffffffffffffffffffffffffffffff1690806002018054610a7e906117bd565b80601f0160208091040260200160405190810160405280929190818152602001828054610aaa906117bd565b8015610af75780601f10610acc57610100808354040283529160200191610af7565b820191906000526020600020905b815481529060010190602001808311610ada57829003601f168201915b505050505090806003018054610b0c906117bd565b80601f0160208091040260200160405190810160405280929190818152602001828054610b38906117bd565b8015610b855780601f10610b5a57610100808354040283529160200191610b85565b820191906000526020600020905b815481529060010190602001808311610b6857829003601f168201915b505050505090806004018054610b9a906117bd565b80601f0160208091040260200160405190810160405280929190818152602001828054610bc6906117bd565b8015610c135780601f10610be857610100808354040283529160200191610c13565b820191906000526020600020905b815481529060010190602001808311610bf657829003601f168201915b5050505050908060050154908060060160009054906101000a900460ff1690806007015490806008015490806009015490508a565b6002602052816000526040600020602052806000526040600020600091509150505481565b828054610c79906117bd565b90600052602060002090601f016020900481019282610c9b5760008555610ce2565b82601f10610cb457805160ff1916838001178555610ce2565b82800160010185558215610ce2579182015b82811115610ce1578251825591602001919060010190610cc6565b5b509050610cef9190610d5e565b5090565b60405180610140016040528060008152602001600073ffffffffffffffffffffffffffffffffffffffff168152602001606081526020016060815260200160608152602001600081526020016000151581526020016000815260200160008152602001600081525090565b5b80821115610d77576000816000905550600101610d5f565b5090565b6000610d8e610d8984611588565b611557565b905082815260208101848484011115610da657600080fd5b610db184828561177b565b509392505050565b600081359050610dc881611905565b92915050565b600082601f830112610ddf57600080fd5b8135610def848260208601610d7b565b91505092915050565b600081359050610e078161191c565b92915050565b60008060408385031215610e2057600080fd5b6000610e2e85828601610db9565b9250506020610e3f85828601610df8565b9150509250929050565b600080600080600060a08688031215610e6157600080fd5b600086013567ffffffffffffffff811115610e7b57600080fd5b610e8788828901610dce565b955050602086013567ffffffffffffffff811115610ea457600080fd5b610eb088828901610dce565b945050604086013567ffffffffffffffff811115610ecd57600080fd5b610ed988828901610dce565b9350506060610eea88828901610df8565b9250506080610efb88828901610df8565b9150509295509295909350565b600060208284031215610f1a57600080fd5b6000610f2884828501610df8565b91505092915050565b60008060408385031215610f4457600080fd5b6000610f5285828601610df8565b9250506020610f6385828601610df8565b9150509250929050565b6000610f79838361124a565b905092915050565b610f8a81611733565b82525050565b610f9981611733565b82525050565b6000610faa826115c8565b610fb481856115eb565b935083602082028501610fc6856115b8565b8060005b858110156110025784840389528151610fe38582610f6d565b9450610fee836115de565b925060208a01995050600181019050610fca565b50829750879550505050505092915050565b61101d81611745565b82525050565b61102c81611745565b82525050565b600061103d826115d3565b61104781856115fc565b935061105781856020860161178a565b611060816118f4565b840191505092915050565b6000611076826115d3565b611080818561160d565b935061109081856020860161178a565b611099816118f4565b840191505092915050565b60006110b160198361160d565b91507f50726f7065727479206973206e6f7420617661696c61626c65000000000000006000830152602082019050919050565b60006110f160148361160d565b91507f496e73756666696369656e74207061796d656e740000000000000000000000006000830152602082019050919050565b6000611131601b8361160d565b91507f4e6f7420656e6f75676820746f6b656e7320617661696c61626c6500000000006000830152602082019050919050565b600061117160238361160d565b91507f546f74616c20746f6b656e73206d75737420626520677265617465722074686160008301527f6e203000000000000000000000000000000000000000000000000000000000006020830152604082019050919050565b60006111d760208361160d565b91507f4d757374207075726368617365206174206c65617374206f6e6520746f6b656e6000830152602082019050919050565b6000611217601c8361160d565b91507f5072696365206d7573742062652067726561746572207468616e2030000000006000830152602082019050919050565b6000610140830160008301516112636000860182611332565b5060208301516112766020860182610f81565b506040830151848203604086015261128e8282611032565b915050606083015184820360608601526112a88282611032565b915050608083015184820360808601526112c28282611032565b91505060a08301516112d760a0860182611332565b5060c08301516112ea60c0860182611014565b5060e08301516112fd60e0860182611332565b50610100830151611312610100860182611332565b50610120830151611327610120860182611332565b508091505092915050565b61133b81611771565b82525050565b61134a81611771565b82525050565b60006040820190506113656000830185610f90565b6113726020830184611341565b9392505050565b600060208201905081810360008301526113938184610f9f565b905092915050565b600060408201905081810360008301526113b5818561106b565b90506113c46020830184611341565b9392505050565b600060208201905081810360008301526113e4816110a4565b9050919050565b60006020820190508181036000830152611404816110e4565b9050919050565b6000602082019050818103600083015261142481611124565b9050919050565b6000602082019050818103600083015261144481611164565b9050919050565b60006020820190508181036000830152611464816111ca565b9050919050565b600060208201905081810360008301526114848161120a565b9050919050565b60006020820190506114a06000830184611341565b92915050565b6000610140820190506114bc600083018d611341565b6114c9602083018c610f90565b81810360408301526114db818b61106b565b905081810360608301526114ef818a61106b565b90508181036080830152611503818961106b565b905061151260a0830188611341565b61151f60c0830187611023565b61152c60e0830186611341565b61153a610100830185611341565b611548610120830184611341565b9b9a5050505050505050505050565b6000604051905081810181811067ffffffffffffffff8211171561157e5761157d6118c5565b5b8060405250919050565b600067ffffffffffffffff8211156115a3576115a26118c5565b5b601f19601f8301169050602081019050919050565b6000819050602082019050919050565b600081519050919050565b600081519050919050565b6000602082019050919050565b600082825260208201905092915050565b600082825260208201905092915050565b600082825260208201905092915050565b600061162982611771565b915061163483611771565b9250827fffffffffffffffffffffffffffffffffffffffffffffffffffffffffffffffff0382111561166957611668611838565b5b828201905092915050565b600061167f82611771565b915061168a83611771565b92508261169a57611699611867565b5b828204905092915050565b60006116b082611771565b91506116bb83611771565b9250817fffffffffffffffffffffffffffffffffffffffffffffffffffffffffffffffff04831182151516156116f4576116f3611838565b5b828202905092915050565b600061170a82611771565b915061171583611771565b92508282101561172857611727611838565b5b828203905092915050565b600061173e82611751565b9050919050565b60008115159050919050565b600073ffffffffffffffffffffffffffffffffffffffff82169050919050565b6000819050919050565b82818337600083830152505050565b60005b838110156117a857808201518184015260208101905061178d565b838111156117b7576000848401525b50505050565b600060028204905060018216806117d557607f821691505b602082108114156117e9576117e8611896565b5b50919050565b60006117fa82611771565b91507fffffffffffffffffffffffffffffffffffffffffffffffffffffffffffffffff82141561182d5761182c611838565b5b600182019050919050565b7f4e487b7100000000000000000000000000000000000000000000000000000000600052601160045260246000fd5b7f4e487b7100000000000000000000000000000000000000000000000000000000600052601260045260246000fd5b7f4e487b7100000000000000000000000000000000000000000000000000000000600052602260045260246000fd5b7f4e487b7100000000000000000000000000000000000000000000000000000000600052604160045260246000fd5b6000601f19601f8301169050919050565b61190e81611733565b811461191957600080fd5b50565b61192581611771565b811461193057600080fd5b5056fea2646970667358221220b5ce327f383004fe3a8146ca78161999a9540c25c777659067ee89ce46f17f2864736f6c63430008000033","opcodes":"PUSH1 0x80 PUSH1 0x40 MSTORE PUSH1 0x0 PUSH1 0x1 SSTORE CALLVALUE DUP1 ISZERO PUSH2 0x15 JUMPI PUSH1 0x0 DUP1 REVERT JUMPDEST POP PUSH2 0x1969 DUP1 PUSH2 0x25 PUSH1 0x0 CODECOPY PUSH1 0x0 RETURN INVALID PUSH1 0x80 PUSH1 0x40 MSTORE PUSH1 0x4 CALLDATASIZE LT PUSH2 0x70 JUMPI PUSH1 0x0 CALLDATALOAD PUSH1 0xE0 SHR DUP1 PUSH4 0x8BF0AF3E GT PUSH2 0x4E JUMPI DUP1 PUSH4 0x8BF0AF3E EQ PUSH2 0x106 JUMPI DUP1 PUSH4 0xC361A335 EQ PUSH2 0x122 JUMPI DUP1 PUSH4 0xF7B10808 EQ PUSH2 0x14D JUMPI DUP1 PUSH4 0xF9F411D8 EQ PUSH2 0x193 JUMPI PUSH2 0x70 JUMP JUMPDEST DUP1 PUSH4 0x8D32039 EQ PUSH2 0x75 JUMPI DUP1 PUSH4 0x1265D847 EQ PUSH2 0xB2 JUMPI DUP1 PUSH4 0x3D51402C EQ PUSH2 0xDB JUMPI JUMPDEST PUSH1 0x0 DUP1 REVERT JUMPDEST CALLVALUE DUP1 ISZERO PUSH2 0x81 JUMPI PUSH1 0x0 DUP1 REVERT JUMPDEST POP PUSH2 0x9C PUSH1 0x4 DUP1 CALLDATASIZE SUB DUP2 ADD SWAP1 PUSH2 0x97 SWAP2 SWAP1 PUSH2 0xF08 JUMP JUMPDEST PUSH2 0x1D0 JUMP JUMPDEST PUSH1 0x40 MLOAD PUSH2 0xA9 SWAP2 SWAP1 PUSH2 0x148B JUMP JUMPDEST PUSH1 0x40 MLOAD DUP1 SWAP2 SUB SWAP1 RETURN JUMPDEST CALLVALUE DUP1 ISZERO PUSH2 0xBE JUMPI PUSH1 0x0 DUP1 REVERT JUMPDEST POP PUSH2 0xD9 PUSH1 0x4 DUP1 CALLDATASIZE SUB DUP2 ADD SWAP1 PUSH2 0xD4 SWAP2 SWAP1 PUSH2 0xE49 JUMP JUMPDEST PUSH2 0x22A JUMP JUMPDEST STOP JUMPDEST CALLVALUE DUP1 ISZERO PUSH2 0xE7 JUMPI PUSH1 0x0 DUP1 REVERT JUMPDEST POP PUSH2 0xF0 PUSH2 0x486 JUMP JUMPDEST PUSH1 0x40 MLOAD PUSH2 0xFD SWAP2 SWAP1 PUSH2 0x1379 JUMP JUMPDEST PUSH1 0x40 MLOAD DUP1 SWAP2 SUB SWAP1 RETURN JUMPDEST PUSH2 0x120 PUSH1 0x4 DUP1 CALLDATASIZE SUB DUP2 ADD SWAP1 PUSH2 0x11B SWAP2 SWAP1 PUSH2 0xF31 JUMP JUMPDEST PUSH2 0x7FA JUMP JUMPDEST STOP JUMPDEST CALLVALUE DUP1 ISZERO PUSH2 0x12E JUMPI PUSH1 0x0 DUP1 REVERT JUMPDEST POP PUSH2 0x137 PUSH2 0xA29 JUMP JUMPDEST PUSH1 0x40 MLOAD PUSH2 0x144 SWAP2 SWAP1 PUSH2 0x148B JUMP JUMPDEST PUSH1 0x40 MLOAD DUP1 SWAP2 SUB SWAP1 RETURN JUMPDEST CALLVALUE DUP1 ISZERO PUSH2 0x159 JUMPI PUSH1 0x0 DUP1 REVERT JUMPDEST POP PUSH2 0x174 PUSH1 0x4 DUP1 CALLDATASIZE SUB DUP2 ADD SWAP1 PUSH2 0x16F SWAP2 SWAP1 PUSH2 0xF08 JUMP JUMPDEST PUSH2 0xA2F JUMP JUMPDEST PUSH1 0x40 MLOAD PUSH2 0x18A SWAP11 SWAP10 SWAP9 SWAP8 SWAP7 SWAP6 SWAP5 SWAP4 SWAP3 SWAP2 SWAP1 PUSH2 0x14A6 JUMP JUMPDEST PUSH1 0x40 MLOAD DUP1 SWAP2 SUB SWAP1 RETURN JUMPDEST CALLVALUE DUP1 ISZERO PUSH2 0x19F JUMPI PUSH1 0x0 DUP1 REVERT JUMPDEST POP PUSH2 0x1BA PUSH1 0x4 DUP1 CALLDATASIZE SUB DUP2 ADD SWAP1 PUSH2 0x1B5 SWAP2 SWAP1 PUSH2 0xE0D JUMP JUMPDEST PUSH2 0xC48 JUMP JUMPDEST PUSH1 0x40 MLOAD PUSH2 0x1C7 SWAP2 SWAP1 PUSH2 0x148B JUMP JUMPDEST PUSH1 0x40 MLOAD DUP1 SWAP2 SUB SWAP1 RETURN JUMPDEST PUSH1 0x0 PUSH1 0x2 PUSH1 0x0 CALLER PUSH20 0xFFFFFFFFFFFFFFFFFFFFFFFFFFFFFFFFFFFFFFFF AND PUSH20 0xFFFFFFFFFFFFFFFFFFFFFFFFFFFFFFFFFFFFFFFF AND DUP2 MSTORE PUSH1 0x20 ADD SWAP1 DUP2 MSTORE PUSH1 0x20 ADD PUSH1 0x0 KECCAK256 PUSH1 0x0 DUP4 DUP2 MSTORE PUSH1 0x20 ADD SWAP1 DUP2 MSTORE PUSH1 0x20 ADD PUSH1 0x0 KECCAK256 SLOAD SWAP1 POP SWAP2 SWAP1 POP JUMP JUMPDEST PUSH1 0x0 DUP3 GT PUSH2 0x26D JUMPI PUSH1 0x40 MLOAD PUSH32 0x8C379A000000000000000000000000000000000000000000000000000000000 DUP2 MSTORE PUSH1 0x4 ADD PUSH2 0x264 SWAP1 PUSH2 0x146B JUMP JUMPDEST PUSH1 0x40 MLOAD DUP1 SWAP2 SUB SWAP1 REVERT JUMPDEST PUSH1 0x0 DUP2 GT PUSH2 0x2B0 JUMPI PUSH1 0x40 MLOAD PUSH32 0x8C379A000000000000000000000000000000000000000000000000000000000 DUP2 MSTORE PUSH1 0x4 ADD PUSH2 0x2A7 SWAP1 PUSH2 0x142B JUMP JUMPDEST PUSH1 0x40 MLOAD DUP1 SWAP2 SUB SWAP1 REVERT JUMPDEST PUSH1 0x1 PUSH1 0x0 DUP2 SLOAD DUP1 SWAP3 SWAP2 SWAP1 PUSH2 0x2C3 SWAP1 PUSH2 0x17EF JUMP JUMPDEST SWAP2 SWAP1 POP SSTORE POP PUSH1 0x0 DUP2 DUP4 PUSH2 0x2D6 SWAP2 SWAP1 PUSH2 0x1674 JUMP JUMPDEST SWAP1 POP PUSH1 0x40 MLOAD DUP1 PUSH2 0x140 ADD PUSH1 0x40 MSTORE DUP1 PUSH1 0x1 SLOAD DUP2 MSTORE PUSH1 0x20 ADD CALLER PUSH20 0xFFFFFFFFFFFFFFFFFFFFFFFFFFFFFFFFFFFFFFFF AND DUP2 MSTORE PUSH1 0x20 ADD DUP8 DUP2 MSTORE PUSH1 0x20 ADD DUP7 DUP2 MSTORE PUSH1 0x20 ADD DUP6 DUP2 MSTORE PUSH1 0x20 ADD DUP5 DUP2 MSTORE PUSH1 0x20 ADD PUSH1 0x1 ISZERO ISZERO DUP2 MSTORE PUSH1 0x20 ADD DUP3 DUP2 MSTORE PUSH1 0x20 ADD DUP4 DUP2 MSTORE PUSH1 0x20 ADD DUP4 DUP2 MSTORE POP PUSH1 0x0 DUP1 PUSH1 0x1 SLOAD DUP2 MSTORE PUSH1 0x20 ADD SWAP1 DUP2 MSTORE PUSH1 0x20 ADD PUSH1 0x0 KECCAK256 PUSH1 0x0 DUP3 ADD MLOAD DUP2 PUSH1 0x0 ADD SSTORE PUSH1 0x20 DUP3 ADD MLOAD DUP2 PUSH1 0x1 ADD PUSH1 0x0 PUSH2 0x100 EXP DUP2 SLOAD DUP2 PUSH20 0xFFFFFFFFFFFFFFFFFFFFFFFFFFFFFFFFFFFFFFFF MUL NOT AND SWAP1 DUP4 PUSH20 0xFFFFFFFFFFFFFFFFFFFFFFFFFFFFFFFFFFFFFFFF AND MUL OR SWAP1 SSTORE POP PUSH1 0x40 DUP3 ADD MLOAD DUP2 PUSH1 0x2 ADD SWAP1 DUP1 MLOAD SWAP1 PUSH1 0x20 ADD SWAP1 PUSH2 0x3BA SWAP3 SWAP2 SWAP1 PUSH2 0xC6D JUMP JUMPDEST POP PUSH1 0x60 DUP3 ADD MLOAD DUP2 PUSH1 0x3 ADD SWAP1 DUP1 MLOAD SWAP1 PUSH1 0x20 ADD SWAP1 PUSH2 0x3D7 SWAP3 SWAP2 SWAP1 PUSH2 0xC6D JUMP JUMPDEST POP PUSH1 0x80 DUP3 ADD MLOAD DUP2 PUSH1 0x4 ADD SWAP1 DUP1 MLOAD SWAP1 PUSH1 0x20 ADD SWAP1 PUSH2 0x3F4 SWAP3 SWAP2 SWAP1 PUSH2 0xC6D JUMP JUMPDEST POP PUSH1 0xA0 DUP3 ADD MLOAD DUP2 PUSH1 0x5 ADD SSTORE PUSH1 0xC0 DUP3 ADD MLOAD DUP2 PUSH1 0x6 ADD PUSH1 0x0 PUSH2 0x100 EXP DUP2 SLOAD DUP2 PUSH1 0xFF MUL NOT AND SWAP1 DUP4 ISZERO ISZERO MUL OR SWAP1 SSTORE POP PUSH1 0xE0 DUP3 ADD MLOAD DUP2 PUSH1 0x7 ADD SSTORE PUSH2 0x100 DUP3 ADD MLOAD DUP2 PUSH1 0x8 ADD SSTORE PUSH2 0x120 DUP3 ADD MLOAD DUP2 PUSH1 0x9 ADD SSTORE SWAP1 POP POP PUSH1 0x1 SLOAD PUSH32 0xB906962CBF3F3ECD490633CBF2018014C57107262F8D80F40A11CA0E8B31F2AA DUP8 DUP6 PUSH1 0x40 MLOAD PUSH2 0x476 SWAP3 SWAP2 SWAP1 PUSH2 0x139B JUMP JUMPDEST PUSH1 0x40 MLOAD DUP1 SWAP2 SUB SWAP1 LOG2 POP POP POP POP POP POP JUMP JUMPDEST PUSH1 0x60 PUSH1 0x0 PUSH1 0x1 SLOAD PUSH8 0xFFFFFFFFFFFFFFFF DUP2 GT ISZERO PUSH2 0x4CC JUMPI PUSH32 0x4E487B7100000000000000000000000000000000000000000000000000000000 PUSH1 0x0 MSTORE PUSH1 0x41 PUSH1 0x4 MSTORE PUSH1 0x24 PUSH1 0x0 REVERT JUMPDEST PUSH1 0x40 MLOAD SWAP1 DUP1 DUP3 MSTORE DUP1 PUSH1 0x20 MUL PUSH1 0x20 ADD DUP3 ADD PUSH1 0x40 MSTORE DUP1 ISZERO PUSH2 0x505 JUMPI DUP2 PUSH1 0x20 ADD JUMPDEST PUSH2 0x4F2 PUSH2 0xCF3 JUMP JUMPDEST DUP2 MSTORE PUSH1 0x20 ADD SWAP1 PUSH1 0x1 SWAP1 SUB SWAP1 DUP2 PUSH2 0x4EA JUMPI SWAP1 POP JUMPDEST POP SWAP1 POP PUSH1 0x0 PUSH1 0x1 SWAP1 POP JUMPDEST PUSH1 0x1 SLOAD DUP2 GT PUSH2 0x7F2 JUMPI PUSH1 0x0 DUP1 DUP3 DUP2 MSTORE PUSH1 0x20 ADD SWAP1 DUP2 MSTORE PUSH1 0x20 ADD PUSH1 0x0 KECCAK256 PUSH1 0x40 MLOAD DUP1 PUSH2 0x140 ADD PUSH1 0x40 MSTORE SWAP1 DUP2 PUSH1 0x0 DUP3 ADD SLOAD DUP2 MSTORE PUSH1 0x20 ADD PUSH1 0x1 DUP3 ADD PUSH1 0x0 SWAP1 SLOAD SWAP1 PUSH2 0x100 EXP SWAP1 DIV PUSH20 0xFFFFFFFFFFFFFFFFFFFFFFFFFFFFFFFFFFFFFFFF AND PUSH20 0xFFFFFFFFFFFFFFFFFFFFFFFFFFFFFFFFFFFFFFFF AND PUSH20 0xFFFFFFFFFFFFFFFFFFFFFFFFFFFFFFFFFFFFFFFF AND DUP2 MSTORE PUSH1 0x20 ADD PUSH1 0x2 DUP3 ADD DUP1 SLOAD PUSH2 0x5A6 SWAP1 PUSH2 0x17BD JUMP JUMPDEST DUP1 PUSH1 0x1F ADD PUSH1 0x20 DUP1 SWAP2 DIV MUL PUSH1 0x20 ADD PUSH1 0x40 MLOAD SWAP1 DUP2 ADD PUSH1 0x40 MSTORE DUP1 SWAP3 SWAP2 SWAP1 DUP2 DUP2 MSTORE PUSH1 0x20 ADD DUP3 DUP1 SLOAD PUSH2 0x5D2 SWAP1 PUSH2 0x17BD JUMP JUMPDEST DUP1 ISZERO PUSH2 0x61F JUMPI DUP1 PUSH1 0x1F LT PUSH2 0x5F4 JUMPI PUSH2 0x100 DUP1 DUP4 SLOAD DIV MUL DUP4 MSTORE SWAP2 PUSH1 0x20 ADD SWAP2 PUSH2 0x61F JUMP JUMPDEST DUP3 ADD SWAP2 SWAP1 PUSH1 0x0 MSTORE PUSH1 0x20 PUSH1 0x0 KECCAK256 SWAP1 JUMPDEST DUP2 SLOAD DUP2 MSTORE SWAP1 PUSH1 0x1 ADD SWAP1 PUSH1 0x20 ADD DUP1 DUP4 GT PUSH2 0x602 JUMPI DUP3 SWAP1 SUB PUSH1 0x1F AND DUP3 ADD SWAP2 JUMPDEST POP POP POP POP POP DUP2 MSTORE PUSH1 0x20 ADD PUSH1 0x3 DUP3 ADD DUP1 SLOAD PUSH2 0x638 SWAP1 PUSH2 0x17BD JUMP JUMPDEST DUP1 PUSH1 0x1F ADD PUSH1 0x20 DUP1 SWAP2 DIV MUL PUSH1 0x20 ADD PUSH1 0x40 MLOAD SWAP1 DUP2 ADD PUSH1 0x40 MSTORE DUP1 SWAP3 SWAP2 SWAP1 DUP2 DUP2 MSTORE PUSH1 0x20 ADD DUP3 DUP1 SLOAD PUSH2 0x664 SWAP1 PUSH2 0x17BD JUMP JUMPDEST DUP1 ISZERO PUSH2 0x6B1 JUMPI DUP1 PUSH1 0x1F LT PUSH2 0x686 JUMPI PUSH2 0x100 DUP1 DUP4 SLOAD DIV MUL DUP4 MSTORE SWAP2 PUSH1 0x20 ADD SWAP2 PUSH2 0x6B1 JUMP JUMPDEST DUP3 ADD SWAP2 SWAP1 PUSH1 0x0 MSTORE PUSH1 0x20 PUSH1 0x0 KECCAK256 SWAP1 JUMPDEST DUP2 SLOAD DUP2 MSTORE SWAP1 PUSH1 0x1 ADD SWAP1 PUSH1 0x20 ADD DUP1 DUP4 GT PUSH2 0x694 JUMPI DUP3 SWAP1 SUB PUSH1 0x1F AND DUP3 ADD SWAP2 JUMPDEST POP POP POP POP POP DUP2 MSTORE PUSH1 0x20 ADD PUSH1 0x4 DUP3 ADD DUP1 SLOAD PUSH2 0x6CA SWAP1 PUSH2 0x17BD JUMP JUMPDEST DUP1 PUSH1 0x1F ADD PUSH1 0x20 DUP1 SWAP2 DIV MUL PUSH1 0x20 ADD PUSH1 0x40 MLOAD SWAP1 DUP2 ADD PUSH1 0x40 MSTORE DUP1 SWAP3 SWAP2 SWAP1 DUP2 DUP2 MSTORE PUSH1 0x20 ADD DUP3 DUP1 SLOAD PUSH2 0x6F6 SWAP1 PUSH2 0x17BD JUMP JUMPDEST DUP1 ISZERO PUSH2 0x743 JUMPI DUP1 PUSH1 0x1F LT PUSH2 0x718 JUMPI PUSH2 0x100 DUP1 DUP4 SLOAD DIV MUL DUP4 MSTORE SWAP2 PUSH1 0x20 ADD SWAP2 PUSH2 0x743 JUMP JUMPDEST DUP3 ADD SWAP2 SWAP1 PUSH1 0x0 MSTORE PUSH1 0x20 PUSH1 0x0 KECCAK256 SWAP1 JUMPDEST DUP2 SLOAD DUP2 MSTORE SWAP1 PUSH1 0x1 ADD SWAP1 PUSH1 0x20 ADD DUP1 DUP4 GT PUSH2 0x726 JUMPI DUP3 SWAP1 SUB PUSH1 0x1F AND DUP3 ADD SWAP2 JUMPDEST POP POP POP POP POP DUP2 MSTORE PUSH1 0x20 ADD PUSH1 0x5 DUP3 ADD SLOAD DUP2 MSTORE PUSH1 0x20 ADD PUSH1 0x6 DUP3 ADD PUSH1 0x0 SWAP1 SLOAD SWAP1 PUSH2 0x100 EXP SWAP1 DIV PUSH1 0xFF AND ISZERO ISZERO ISZERO ISZERO DUP2 MSTORE PUSH1 0x20 ADD PUSH1 0x7 DUP3 ADD SLOAD DUP2 MSTORE PUSH1 0x20 ADD PUSH1 0x8 DUP3 ADD SLOAD DUP2 MSTORE PUSH1 0x20 ADD PUSH1 0x9 DUP3 ADD SLOAD DUP2 MSTORE POP POP DUP3 PUSH1 0x1 DUP4 PUSH2 0x79D SWAP2 SWAP1 PUSH2 0x16FF JUMP JUMPDEST DUP2 MLOAD DUP2 LT PUSH2 0x7D4 JUMPI PUSH32 0x4E487B7100000000000000000000000000000000000000000000000000000000 PUSH1 0x0 MSTORE PUSH1 0x32 PUSH1 0x4 MSTORE PUSH1 0x24 PUSH1 0x0 REVERT JUMPDEST PUSH1 0x20 MUL PUSH1 0x20 ADD ADD DUP2 SWAP1 MSTORE POP DUP1 DUP1 PUSH2 0x7EA SWAP1 PUSH2 0x17EF JUMP JUMPDEST SWAP2 POP POP PUSH2 0x50F JUMP JUMPDEST POP DUP1 SWAP2 POP POP SWAP1 JUMP JUMPDEST PUSH1 0x0 DUP1 PUSH1 0x0 DUP5 DUP2 MSTORE PUSH1 0x20 ADD SWAP1 DUP2 MSTORE PUSH1 0x20 ADD PUSH1 0x0 KECCAK256 SWAP1 POP DUP1 PUSH1 0x6 ADD PUSH1 0x0 SWAP1 SLOAD SWAP1 PUSH2 0x100 EXP SWAP1 DIV PUSH1 0xFF AND PUSH2 0x861 JUMPI PUSH1 0x40 MLOAD PUSH32 0x8C379A000000000000000000000000000000000000000000000000000000000 DUP2 MSTORE PUSH1 0x4 ADD PUSH2 0x858 SWAP1 PUSH2 0x13CB JUMP JUMPDEST PUSH1 0x40 MLOAD DUP1 SWAP2 SUB SWAP1 REVERT JUMPDEST PUSH1 0x0 DUP3 GT PUSH2 0x8A4 JUMPI PUSH1 0x40 MLOAD PUSH32 0x8C379A000000000000000000000000000000000000000000000000000000000 DUP2 MSTORE PUSH1 0x4 ADD PUSH2 0x89B SWAP1 PUSH2 0x144B JUMP JUMPDEST PUSH1 0x40 MLOAD DUP1 SWAP2 SUB SWAP1 REVERT JUMPDEST DUP1 PUSH1 0x9 ADD SLOAD DUP3 GT ISZERO PUSH2 0x8EB JUMPI PUSH1 0x40 MLOAD PUSH32 0x8C379A000000000000000000000000000000000000000000000000000000000 DUP2 MSTORE PUSH1 0x4 ADD PUSH2 0x8E2 SWAP1 PUSH2 0x140B JUMP JUMPDEST PUSH1 0x40 MLOAD DUP1 SWAP2 SUB SWAP1 REVERT JUMPDEST DUP2 DUP2 PUSH1 0x7 ADD SLOAD PUSH2 0x8FB SWAP2 SWAP1 PUSH2 0x16A5 JUMP JUMPDEST CALLVALUE LT ISZERO PUSH2 0x93D JUMPI PUSH1 0x40 MLOAD PUSH32 0x8C379A000000000000000000000000000000000000000000000000000000000 DUP2 MSTORE PUSH1 0x4 ADD PUSH2 0x934 SWAP1 PUSH2 0x13EB JUMP JUMPDEST PUSH1 0x40 MLOAD DUP1 SWAP2 SUB SWAP1 REVERT JUMPDEST DUP2 DUP2 PUSH1 0x9 ADD PUSH1 0x0 DUP3 DUP3 SLOAD PUSH2 0x951 SWAP2 SWAP1 PUSH2 0x16FF JUMP JUMPDEST SWAP3 POP POP DUP2 SWAP1 SSTORE POP DUP2 PUSH1 0x2 PUSH1 0x0 CALLER PUSH20 0xFFFFFFFFFFFFFFFFFFFFFFFFFFFFFFFFFFFFFFFF AND PUSH20 0xFFFFFFFFFFFFFFFFFFFFFFFFFFFFFFFFFFFFFFFF AND DUP2 MSTORE PUSH1 0x20 ADD SWAP1 DUP2 MSTORE PUSH1 0x20 ADD PUSH1 0x0 KECCAK256 PUSH1 0x0 DUP6 DUP2 MSTORE PUSH1 0x20 ADD SWAP1 DUP2 MSTORE PUSH1 0x20 ADD PUSH1 0x0 KECCAK256 PUSH1 0x0 DUP3 DUP3 SLOAD PUSH2 0x9B8 SWAP2 SWAP1 PUSH2 0x161E JUMP JUMPDEST SWAP3 POP POP DUP2 SWAP1 SSTORE POP PUSH1 0x0 DUP2 PUSH1 0x9 ADD SLOAD EQ ISZERO PUSH2 0x9EA JUMPI PUSH1 0x0 DUP2 PUSH1 0x6 ADD PUSH1 0x0 PUSH2 0x100 EXP DUP2 SLOAD DUP2 PUSH1 0xFF MUL NOT AND SWAP1 DUP4 ISZERO ISZERO MUL OR SWAP1 SSTORE POP JUMPDEST DUP3 PUSH32 0xAF357506555A8FDF38C81D9A8FA2C6BCA372E817F179CF596C9645902A927AEA CALLER DUP5 PUSH1 0x40 MLOAD PUSH2 0xA1C SWAP3 SWAP2 SWAP1 PUSH2 0x1350 JUMP JUMPDEST PUSH1 0x40 MLOAD DUP1 SWAP2 SUB SWAP1 LOG2 POP POP POP JUMP JUMPDEST PUSH1 0x1 SLOAD DUP2 JUMP JUMPDEST PUSH1 0x0 PUSH1 0x20 MSTORE DUP1 PUSH1 0x0 MSTORE PUSH1 0x40 PUSH1 0x0 KECCAK256 PUSH1 0x0 SWAP2 POP SWAP1 POP DUP1 PUSH1 0x0 ADD SLOAD SWAP1 DUP1 PUSH1 0x1 ADD PUSH1 0x0 SWAP1 SLOAD SWAP1 PUSH2 0x100 EXP SWAP1 DIV PUSH20 0xFFFFFFFFFFFFFFFFFFFFFFFFFFFFFFFFFFFFFFFF AND SWAP1 DUP1 PUSH1 0x2 ADD DUP1 SLOAD PUSH2 0xA7E SWAP1 PUSH2 0x17BD JUMP JUMPDEST DUP1 PUSH1 0x1F ADD PUSH1 0x20 DUP1 SWAP2 DIV MUL PUSH1 0x20 ADD PUSH1 0x40 MLOAD SWAP1 DUP2 ADD PUSH1 0x40 MSTORE DUP1 SWAP3 SWAP2 SWAP1 DUP2 DUP2 MSTORE PUSH1 0x20 ADD DUP3 DUP1 SLOAD PUSH2 0xAAA SWAP1 PUSH2 0x17BD JUMP JUMPDEST DUP1 ISZERO PUSH2 0xAF7 JUMPI DUP1 PUSH1 0x1F LT PUSH2 0xACC JUMPI PUSH2 0x100 DUP1 DUP4 SLOAD DIV MUL DUP4 MSTORE SWAP2 PUSH1 0x20 ADD SWAP2 PUSH2 0xAF7 JUMP JUMPDEST DUP3 ADD SWAP2 SWAP1 PUSH1 0x0 MSTORE PUSH1 0x20 PUSH1 0x0 KECCAK256 SWAP1 JUMPDEST DUP2 SLOAD DUP2 MSTORE SWAP1 PUSH1 0x1 ADD SWAP1 PUSH1 0x20 ADD DUP1 DUP4 GT PUSH2 0xADA JUMPI DUP3 SWAP1 SUB PUSH1 0x1F AND DUP3 ADD SWAP2 JUMPDEST POP POP POP POP POP SWAP1 DUP1 PUSH1 0x3 ADD DUP1 SLOAD PUSH2 0xB0C SWAP1 PUSH2 0x17BD JUMP JUMPDEST DUP1 PUSH1 0x1F ADD PUSH1 0x20 DUP1 SWAP2 DIV MUL PUSH1 0x20 ADD PUSH1 0x40 MLOAD SWAP1 DUP2 ADD PUSH1 0x40 MSTORE DUP1 SWAP3 SWAP2 SWAP1 DUP2 DUP2 MSTORE PUSH1 0x20 ADD DUP3 DUP1 SLOAD PUSH2 0xB38 SWAP1 PUSH2 0x17BD JUMP JUMPDEST DUP1 ISZERO PUSH2 0xB85 JUMPI DUP1 PUSH1 0x1F LT PUSH2 0xB5A JUMPI PUSH2 0x100 DUP1 DUP4 SLOAD DIV MUL DUP4 MSTORE SWAP2 PUSH1 0x20 ADD SWAP2 PUSH2 0xB85 JUMP JUMPDEST DUP3 ADD SWAP2 SWAP1 PUSH1 0x0 MSTORE PUSH1 0x20 PUSH1 0x0 KECCAK256 SWAP1 JUMPDEST DUP2 SLOAD DUP2 MSTORE SWAP1 PUSH1 0x1 ADD SWAP1 PUSH1 0x20 ADD DUP1 DUP4 GT PUSH2 0xB68 JUMPI DUP3 SWAP1 SUB PUSH1 0x1F AND DUP3 ADD SWAP2 JUMPDEST POP POP POP POP POP SWAP1 DUP1 PUSH1 0x4 ADD DUP1 SLOAD PUSH2 0xB9A SWAP1 PUSH2 0x17BD JUMP JUMPDEST DUP1 PUSH1 0x1F ADD PUSH1 0x20 DUP1 SWAP2 DIV MUL PUSH1 0x20 ADD PUSH1 0x40 MLOAD SWAP1 DUP2 ADD PUSH1 0x40 MSTORE DUP1 SWAP3 SWAP2 SWAP1 DUP2 DUP2 MSTORE PUSH1 0x20 ADD DUP3 DUP1 SLOAD PUSH2 0xBC6 SWAP1 PUSH2 0x17BD JUMP JUMPDEST DUP1 ISZERO PUSH2 0xC13 JUMPI DUP1 PUSH1 0x1F LT PUSH2 0xBE8 JUMPI PUSH2 0x100 DUP1 DUP4 SLOAD DIV MUL DUP4 MSTORE SWAP2 PUSH1 0x20 ADD SWAP2 PUSH2 0xC13 JUMP JUMPDEST DUP3 ADD SWAP2 SWAP1 PUSH1 0x0 MSTORE PUSH1 0x20 PUSH1 0x0 KECCAK256 SWAP1 JUMPDEST DUP2 SLOAD DUP2 MSTORE SWAP1 PUSH1 0x1 ADD SWAP1 PUSH1 0x20 ADD DUP1 DUP4 GT PUSH2 0xBF6 JUMPI DUP3 SWAP1 SUB PUSH1 0x1F AND DUP3 ADD SWAP2 JUMPDEST POP POP POP POP POP SWAP1 DUP1 PUSH1 0x5 ADD SLOAD SWAP1 DUP1 PUSH1 0x6 ADD PUSH1 0x0 SWAP1 SLOAD SWAP1 PUSH2 0x100 EXP SWAP1 DIV PUSH1 0xFF AND SWAP1 DUP1 PUSH1 0x7 ADD SLOAD SWAP1 DUP1 PUSH1 0x8 ADD SLOAD SWAP1 DUP1 PUSH1 0x9 ADD SLOAD SWAP1 POP DUP11 JUMP JUMPDEST PUSH1 0x2 PUSH1 0x20 MSTORE DUP2 PUSH1 0x0 MSTORE PUSH1 0x40 PUSH1 0x0 KECCAK256 PUSH1 0x20 MSTORE DUP1 PUSH1 0x0 MSTORE PUSH1 0x40 PUSH1 0x0 KECCAK256 PUSH1 0x0 SWAP2 POP SWAP2 POP POP SLOAD DUP2 JUMP JUMPDEST DUP3 DUP1 SLOAD PUSH2 0xC79 SWAP1 PUSH2 0x17BD JUMP JUMPDEST SWAP1 PUSH1 0x0 MSTORE PUSH1 0x20 PUSH1 0x0 KECCAK256 SWAP1 PUSH1 0x1F ADD PUSH1 0x20 SWAP1 DIV DUP2 ADD SWAP3 DUP3 PUSH2 0xC9B JUMPI PUSH1 0x0 DUP6 SSTORE PUSH2 0xCE2 JUMP JUMPDEST DUP3 PUSH1 0x1F LT PUSH2 0xCB4 JUMPI DUP1 MLOAD PUSH1 0xFF NOT AND DUP4 DUP1 ADD OR DUP6 SSTORE PUSH2 0xCE2 JUMP JUMPDEST DUP3 DUP1 ADD PUSH1 0x1 ADD DUP6 SSTORE DUP3 ISZERO PUSH2 0xCE2 JUMPI SWAP2 DUP3 ADD JUMPDEST DUP3 DUP2 GT ISZERO PUSH2 0xCE1 JUMPI DUP3 MLOAD DUP3 SSTORE SWAP2 PUSH1 0x20 ADD SWAP2 SWAP1 PUSH1 0x1 ADD SWAP1 PUSH2 0xCC6 JUMP JUMPDEST JUMPDEST POP SWAP1 POP PUSH2 0xCEF SWAP2 SWAP1 PUSH2 0xD5E JUMP JUMPDEST POP SWAP1 JUMP JUMPDEST PUSH1 0x40 MLOAD DUP1 PUSH2 0x140 ADD PUSH1 0x40 MSTORE DUP1 PUSH1 0x0 DUP2 MSTORE PUSH1 0x20 ADD PUSH1 0x0 PUSH20 0xFFFFFFFFFFFFFFFFFFFFFFFFFFFFFFFFFFFFFFFF AND DUP2 MSTORE PUSH1 0x20 ADD PUSH1 0x60 DUP2 MSTORE PUSH1 0x20 ADD PUSH1 0x60 DUP2 MSTORE PUSH1 0x20 ADD PUSH1 0x60 DUP2 MSTORE PUSH1 0x20 ADD PUSH1 0x0 DUP2 MSTORE PUSH1 0x20 ADD PUSH1 0x0 ISZERO ISZERO DUP2 MSTORE PUSH1 0x20 ADD PUSH1 0x0 DUP2 MSTORE PUSH1 0x20 ADD PUSH1 0x0 DUP2 MSTORE PUSH1 0x20 ADD PUSH1 0x0 DUP2 MSTORE POP SWAP1 JUMP JUMPDEST JUMPDEST DUP1 DUP3 GT ISZERO PUSH2 0xD77 JUMPI PUSH1 0x0 DUP2 PUSH1 0x0 SWAP1 SSTORE POP PUSH1 0x1 ADD PUSH2 0xD5F JUMP JUMPDEST POP SWAP1 JUMP JUMPDEST PUSH1 0x0 PUSH2 0xD8E PUSH2 0xD89 DUP5 PUSH2 0x1588 JUMP JUMPDEST PUSH2 0x1557 JUMP JUMPDEST SWAP1 POP DUP3 DUP2 MSTORE PUSH1 0x20 DUP2 ADD DUP5 DUP5 DUP5 ADD GT ISZERO PUSH2 0xDA6 JUMPI PUSH1 0x0 DUP1 REVERT JUMPDEST PUSH2 0xDB1 DUP5 DUP3 DUP6 PUSH2 0x177B JUMP JUMPDEST POP SWAP4 SWAP3 POP POP POP JUMP JUMPDEST PUSH1 0x0 DUP2 CALLDATALOAD SWAP1 POP PUSH2 0xDC8 DUP2 PUSH2 0x1905 JUMP JUMPDEST SWAP3 SWAP2 POP POP JUMP JUMPDEST PUSH1 0x0 DUP3 PUSH1 0x1F DUP4 ADD SLT PUSH2 0xDDF JUMPI PUSH1 0x0 DUP1 REVERT JUMPDEST DUP2 CALLDATALOAD PUSH2 0xDEF DUP5 DUP3 PUSH1 0x20 DUP7 ADD PUSH2 0xD7B JUMP JUMPDEST SWAP2 POP POP SWAP3 SWAP2 POP POP JUMP JUMPDEST PUSH1 0x0 DUP2 CALLDATALOAD SWAP1 POP PUSH2 0xE07 DUP2 PUSH2 0x191C JUMP JUMPDEST SWAP3 SWAP2 POP POP JUMP JUMPDEST PUSH1 0x0 DUP1 PUSH1 0x40 DUP4 DUP6 SUB SLT ISZERO PUSH2 0xE20 JUMPI PUSH1 0x0 DUP1 REVERT JUMPDEST PUSH1 0x0 PUSH2 0xE2E DUP6 DUP3 DUP7 ADD PUSH2 0xDB9 JUMP JUMPDEST SWAP3 POP POP PUSH1 0x20 PUSH2 0xE3F DUP6 DUP3 DUP7 ADD PUSH2 0xDF8 JUMP JUMPDEST SWAP2 POP POP SWAP3 POP SWAP3 SWAP1 POP JUMP JUMPDEST PUSH1 0x0 DUP1 PUSH1 0x0 DUP1 PUSH1 0x0 PUSH1 0xA0 DUP7 DUP9 SUB SLT ISZERO PUSH2 0xE61 JUMPI PUSH1 0x0 DUP1 REVERT JUMPDEST PUSH1 0x0 DUP7 ADD CALLDATALOAD PUSH8 0xFFFFFFFFFFFFFFFF DUP2 GT ISZERO PUSH2 0xE7B JUMPI PUSH1 0x0 DUP1 REVERT JUMPDEST PUSH2 0xE87 DUP9 DUP3 DUP10 ADD PUSH2 0xDCE JUMP JUMPDEST SWAP6 POP POP PUSH1 0x20 DUP7 ADD CALLDATALOAD PUSH8 0xFFFFFFFFFFFFFFFF DUP2 GT ISZERO PUSH2 0xEA4 JUMPI PUSH1 0x0 DUP1 REVERT JUMPDEST PUSH2 0xEB0 DUP9 DUP3 DUP10 ADD PUSH2 0xDCE JUMP JUMPDEST SWAP5 POP POP PUSH1 0x40 DUP7 ADD CALLDATALOAD PUSH8 0xFFFFFFFFFFFFFFFF DUP2 GT ISZERO PUSH2 0xECD JUMPI PUSH1 0x0 DUP1 REVERT JUMPDEST PUSH2 0xED9 DUP9 DUP3 DUP10 ADD PUSH2 0xDCE JUMP JUMPDEST SWAP4 POP POP PUSH1 0x60 PUSH2 0xEEA DUP9 DUP3 DUP10 ADD PUSH2 0xDF8 JUMP JUMPDEST SWAP3 POP POP PUSH1 0x80 PUSH2 0xEFB DUP9 DUP3 DUP10 ADD PUSH2 0xDF8 JUMP JUMPDEST SWAP2 POP POP SWAP3 SWAP6 POP SWAP3 SWAP6 SWAP1 SWAP4 POP JUMP JUMPDEST PUSH1 0x0 PUSH1 0x20 DUP3 DUP5 SUB SLT ISZERO PUSH2 0xF1A JUMPI PUSH1 0x0 DUP1 REVERT JUMPDEST PUSH1 0x0 PUSH2 0xF28 DUP5 DUP3 DUP6 ADD PUSH2 0xDF8 JUMP JUMPDEST SWAP2 POP POP SWAP3 SWAP2 POP POP JUMP JUMPDEST PUSH1 0x0 DUP1 PUSH1 0x40 DUP4 DUP6 SUB SLT ISZERO PUSH2 0xF44 JUMPI PUSH1 0x0 DUP1 REVERT JUMPDEST PUSH1 0x0 PUSH2 0xF52 DUP6 DUP3 DUP7 ADD PUSH2 0xDF8 JUMP JUMPDEST SWAP3 POP POP PUSH1 0x20 PUSH2 0xF63 DUP6 DUP3 DUP7 ADD PUSH2 0xDF8 JUMP JUMPDEST SWAP2 POP POP SWAP3 POP SWAP3 SWAP1 POP JUMP JUMPDEST PUSH1 0x0 PUSH2 0xF79 DUP4 DUP4 PUSH2 0x124A JUMP JUMPDEST SWAP1 POP SWAP3 SWAP2 POP POP JUMP JUMPDEST PUSH2 0xF8A DUP2 PUSH2 0x1733 JUMP JUMPDEST DUP3 MSTORE POP POP JUMP JUMPDEST PUSH2 0xF99 DUP2 PUSH2 0x1733 JUMP JUMPDEST DUP3 MSTORE POP POP JUMP JUMPDEST PUSH1 0x0 PUSH2 0xFAA DUP3 PUSH2 0x15C8 JUMP JUMPDEST PUSH2 0xFB4 DUP2 DUP6 PUSH2 0x15EB JUMP JUMPDEST SWAP4 POP DUP4 PUSH1 0x20 DUP3 MUL DUP6 ADD PUSH2 0xFC6 DUP6 PUSH2 0x15B8 JUMP JUMPDEST DUP1 PUSH1 0x0 JUMPDEST DUP6 DUP2 LT ISZERO PUSH2 0x1002 JUMPI DUP5 DUP5 SUB DUP10 MSTORE DUP2 MLOAD PUSH2 0xFE3 DUP6 DUP3 PUSH2 0xF6D JUMP JUMPDEST SWAP5 POP PUSH2 0xFEE DUP4 PUSH2 0x15DE JUMP JUMPDEST SWAP3 POP PUSH1 0x20 DUP11 ADD SWAP10 POP POP PUSH1 0x1 DUP2 ADD SWAP1 POP PUSH2 0xFCA JUMP JUMPDEST POP DUP3 SWAP8 POP DUP8 SWAP6 POP POP POP POP POP POP SWAP3 SWAP2 POP POP JUMP JUMPDEST PUSH2 0x101D DUP2 PUSH2 0x1745 JUMP JUMPDEST DUP3 MSTORE POP POP JUMP JUMPDEST PUSH2 0x102C DUP2 PUSH2 0x1745 JUMP JUMPDEST DUP3 MSTORE POP POP JUMP JUMPDEST PUSH1 0x0 PUSH2 0x103D DUP3 PUSH2 0x15D3 JUMP JUMPDEST PUSH2 0x1047 DUP2 DUP6 PUSH2 0x15FC JUMP JUMPDEST SWAP4 POP PUSH2 0x1057 DUP2 DUP6 PUSH1 0x20 DUP7 ADD PUSH2 0x178A JUMP JUMPDEST PUSH2 0x1060 DUP2 PUSH2 0x18F4 JUMP JUMPDEST DUP5 ADD SWAP2 POP POP SWAP3 SWAP2 POP POP JUMP JUMPDEST PUSH1 0x0 PUSH2 0x1076 DUP3 PUSH2 0x15D3 JUMP JUMPDEST PUSH2 0x1080 DUP2 DUP6 PUSH2 0x160D JUMP JUMPDEST SWAP4 POP PUSH2 0x1090 DUP2 DUP6 PUSH1 0x20 DUP7 ADD PUSH2 0x178A JUMP JUMPDEST PUSH2 0x1099 DUP2 PUSH2 0x18F4 JUMP JUMPDEST DUP5 ADD SWAP2 POP POP SWAP3 SWAP2 POP POP JUMP JUMPDEST PUSH1 0x0 PUSH2 0x10B1 PUSH1 0x19 DUP4 PUSH2 0x160D JUMP JUMPDEST SWAP2 POP PUSH32 0x50726F7065727479206973206E6F7420617661696C61626C6500000000000000 PUSH1 0x0 DUP4 ADD MSTORE PUSH1 0x20 DUP3 ADD SWAP1 POP SWAP2 SWAP1 POP JUMP JUMPDEST PUSH1 0x0 PUSH2 0x10F1 PUSH1 0x14 DUP4 PUSH2 0x160D JUMP JUMPDEST SWAP2 POP PUSH32 0x496E73756666696369656E74207061796D656E74000000000000000000000000 PUSH1 0x0 DUP4 ADD MSTORE PUSH1 0x20 DUP3 ADD SWAP1 POP SWAP2 SWAP1 POP JUMP JUMPDEST PUSH1 0x0 PUSH2 0x1131 PUSH1 0x1B DUP4 PUSH2 0x160D JUMP JUMPDEST SWAP2 POP PUSH32 0x4E6F7420656E6F75676820746F6B656E7320617661696C61626C650000000000 PUSH1 0x0 DUP4 ADD MSTORE PUSH1 0x20 DUP3 ADD SWAP1 POP SWAP2 SWAP1 POP JUMP JUMPDEST PUSH1 0x0 PUSH2 0x1171 PUSH1 0x23 DUP4 PUSH2 0x160D JUMP JUMPDEST SWAP2 POP PUSH32 0x546F74616C20746F6B656E73206D757374206265206772656174657220746861 PUSH1 0x0 DUP4 ADD MSTORE PUSH32 0x6E20300000000000000000000000000000000000000000000000000000000000 PUSH1 0x20 DUP4 ADD MSTORE PUSH1 0x40 DUP3 ADD SWAP1 POP SWAP2 SWAP1 POP JUMP JUMPDEST PUSH1 0x0 PUSH2 0x11D7 PUSH1 0x20 DUP4 PUSH2 0x160D JUMP JUMPDEST SWAP2 POP PUSH32 0x4D757374207075726368617365206174206C65617374206F6E6520746F6B656E PUSH1 0x0 DUP4 ADD MSTORE PUSH1 0x20 DUP3 ADD SWAP1 POP SWAP2 SWAP1 POP JUMP JUMPDEST PUSH1 0x0 PUSH2 0x1217 PUSH1 0x1C DUP4 PUSH2 0x160D JUMP JUMPDEST SWAP2 POP PUSH32 0x5072696365206D7573742062652067726561746572207468616E203000000000 PUSH1 0x0 DUP4 ADD MSTORE PUSH1 0x20 DUP3 ADD SWAP1 POP SWAP2 SWAP1 POP JUMP JUMPDEST PUSH1 0x0 PUSH2 0x140 DUP4 ADD PUSH1 0x0 DUP4 ADD MLOAD PUSH2 0x1263 PUSH1 0x0 DUP7 ADD DUP3 PUSH2 0x1332 JUMP JUMPDEST POP PUSH1 0x20 DUP4 ADD MLOAD PUSH2 0x1276 PUSH1 0x20 DUP7 ADD DUP3 PUSH2 0xF81 JUMP JUMPDEST POP PUSH1 0x40 DUP4 ADD MLOAD DUP5 DUP3 SUB PUSH1 0x40 DUP7 ADD MSTORE PUSH2 0x128E DUP3 DUP3 PUSH2 0x1032 JUMP JUMPDEST SWAP2 POP POP PUSH1 0x60 DUP4 ADD MLOAD DUP5 DUP3 SUB PUSH1 0x60 DUP7 ADD MSTORE PUSH2 0x12A8 DUP3 DUP3 PUSH2 0x1032 JUMP JUMPDEST SWAP2 POP POP PUSH1 0x80 DUP4 ADD MLOAD DUP5 DUP3 SUB PUSH1 0x80 DUP7 ADD MSTORE PUSH2 0x12C2 DUP3 DUP3 PUSH2 0x1032 JUMP JUMPDEST SWAP2 POP POP PUSH1 0xA0 DUP4 ADD MLOAD PUSH2 0x12D7 PUSH1 0xA0 DUP7 ADD DUP3 PUSH2 0x1332 JUMP JUMPDEST POP PUSH1 0xC0 DUP4 ADD MLOAD PUSH2 0x12EA PUSH1 0xC0 DUP7 ADD DUP3 PUSH2 0x1014 JUMP JUMPDEST POP PUSH1 0xE0 DUP4 ADD MLOAD PUSH2 0x12FD PUSH1 0xE0 DUP7 ADD DUP3 PUSH2 0x1332 JUMP JUMPDEST POP PUSH2 0x100 DUP4 ADD MLOAD PUSH2 0x1312 PUSH2 0x100 DUP7 ADD DUP3 PUSH2 0x1332 JUMP JUMPDEST POP PUSH2 0x120 DUP4 ADD MLOAD PUSH2 0x1327 PUSH2 0x120 DUP7 ADD DUP3 PUSH2 0x1332 JUMP JUMPDEST POP DUP1 SWAP2 POP POP SWAP3 SWAP2 POP POP JUMP JUMPDEST PUSH2 0x133B DUP2 PUSH2 0x1771 JUMP JUMPDEST DUP3 MSTORE POP POP JUMP JUMPDEST PUSH2 0x134A DUP2 PUSH2 0x1771 JUMP JUMPDEST DUP3 MSTORE POP POP JUMP JUMPDEST PUSH1 0x0 PUSH1 0x40 DUP3 ADD SWAP1 POP PUSH2 0x1365 PUSH1 0x0 DUP4 ADD DUP6 PUSH2 0xF90 JUMP JUMPDEST PUSH2 0x1372 PUSH1 0x20 DUP4 ADD DUP5 PUSH2 0x1341 JUMP JUMPDEST SWAP4 SWAP3 POP POP POP JUMP JUMPDEST PUSH1 0x0 PUSH1 0x20 DUP3 ADD SWAP1 POP DUP2 DUP2 SUB PUSH1 0x0 DUP4 ADD MSTORE PUSH2 0x1393 DUP2 DUP5 PUSH2 0xF9F JUMP JUMPDEST SWAP1 POP SWAP3 SWAP2 POP POP JUMP JUMPDEST PUSH1 0x0 PUSH1 0x40 DUP3 ADD SWAP1 POP DUP2 DUP2 SUB PUSH1 0x0 DUP4 ADD MSTORE PUSH2 0x13B5 DUP2 DUP6 PUSH2 0x106B JUMP JUMPDEST SWAP1 POP PUSH2 0x13C4 PUSH1 0x20 DUP4 ADD DUP5 PUSH2 0x1341 JUMP JUMPDEST SWAP4 SWAP3 POP POP POP JUMP JUMPDEST PUSH1 0x0 PUSH1 0x20 DUP3 ADD SWAP1 POP DUP2 DUP2 SUB PUSH1 0x0 DUP4 ADD MSTORE PUSH2 0x13E4 DUP2 PUSH2 0x10A4 JUMP JUMPDEST SWAP1 POP SWAP2 SWAP1 POP JUMP JUMPDEST PUSH1 0x0 PUSH1 0x20 DUP3 ADD SWAP1 POP DUP2 DUP2 SUB PUSH1 0x0 DUP4 ADD MSTORE PUSH2 0x1404 DUP2 PUSH2 0x10E4 JUMP JUMPDEST SWAP1 POP SWAP2 SWAP1 POP JUMP JUMPDEST PUSH1 0x0 PUSH1 0x20 DUP3 ADD SWAP1 POP DUP2 DUP2 SUB PUSH1 0x0 DUP4 ADD MSTORE PUSH2 0x1424 DUP2 PUSH2 0x1124 JUMP JUMPDEST SWAP1 POP SWAP2 SWAP1 POP JUMP JUMPDEST PUSH1 0x0 PUSH1 0x20 DUP3 ADD SWAP1 POP DUP2 DUP2 SUB PUSH1 0x0 DUP4 ADD MSTORE PUSH2 0x1444 DUP2 PUSH2 0x1164 JUMP JUMPDEST SWAP1 POP SWAP2 SWAP1 POP JUMP JUMPDEST PUSH1 0x0 PUSH1 0x20 DUP3 ADD SWAP1 POP DUP2 DUP2 SUB PUSH1 0x0 DUP4 ADD MSTORE PUSH2 0x1464 DUP2 PUSH2 0x11CA JUMP JUMPDEST SWAP1 POP SWAP2 SWAP1 POP JUMP JUMPDEST PUSH1 0x0 PUSH1 0x20 DUP3 ADD SWAP1 POP DUP2 DUP2 SUB PUSH1 0x0 DUP4 ADD MSTORE PUSH2 0x1484 DUP2 PUSH2 0x120A JUMP JUMPDEST SWAP1 POP SWAP2 SWAP1 POP JUMP JUMPDEST PUSH1 0x0 PUSH1 0x20 DUP3 ADD SWAP1 POP PUSH2 0x14A0 PUSH1 0x0 DUP4 ADD DUP5 PUSH2 0x1341 JUMP JUMPDEST SWAP3 SWAP2 POP POP JUMP JUMPDEST PUSH1 0x0 PUSH2 0x140 DUP3 ADD SWAP1 POP PUSH2 0x14BC PUSH1 0x0 DUP4 ADD DUP14 PUSH2 0x1341 JUMP JUMPDEST PUSH2 0x14C9 PUSH1 0x20 DUP4 ADD DUP13 PUSH2 0xF90 JUMP JUMPDEST DUP2 DUP2 SUB PUSH1 0x40 DUP4 ADD MSTORE PUSH2 0x14DB DUP2 DUP12 PUSH2 0x106B JUMP JUMPDEST SWAP1 POP DUP2 DUP2 SUB PUSH1 0x60 DUP4 ADD MSTORE PUSH2 0x14EF DUP2 DUP11 PUSH2 0x106B JUMP JUMPDEST SWAP1 POP DUP2 DUP2 SUB PUSH1 0x80 DUP4 ADD MSTORE PUSH2 0x1503 DUP2 DUP10 PUSH2 0x106B JUMP JUMPDEST SWAP1 POP PUSH2 0x1512 PUSH1 0xA0 DUP4 ADD DUP9 PUSH2 0x1341 JUMP JUMPDEST PUSH2 0x151F PUSH1 0xC0 DUP4 ADD DUP8 PUSH2 0x1023 JUMP JUMPDEST PUSH2 0x152C PUSH1 0xE0 DUP4 ADD DUP7 PUSH2 0x1341 JUMP JUMPDEST PUSH2 0x153A PUSH2 0x100 DUP4 ADD DUP6 PUSH2 0x1341 JUMP JUMPDEST PUSH2 0x1548 PUSH2 0x120 DUP4 ADD DUP5 PUSH2 0x1341 JUMP JUMPDEST SWAP12 SWAP11 POP POP POP POP POP POP POP POP POP POP POP JUMP JUMPDEST PUSH1 0x0 PUSH1 0x40 MLOAD SWAP1 POP DUP2 DUP2 ADD DUP2 DUP2 LT PUSH8 0xFFFFFFFFFFFFFFFF DUP3 GT OR ISZERO PUSH2 0x157E JUMPI PUSH2 0x157D PUSH2 0x18C5 JUMP JUMPDEST JUMPDEST DUP1 PUSH1 0x40 MSTORE POP SWAP2 SWAP1 POP JUMP JUMPDEST PUSH1 0x0 PUSH8 0xFFFFFFFFFFFFFFFF DUP3 GT ISZERO PUSH2 0x15A3 JUMPI PUSH2 0x15A2 PUSH2 0x18C5 JUMP JUMPDEST JUMPDEST PUSH1 0x1F NOT PUSH1 0x1F DUP4 ADD AND SWAP1 POP PUSH1 0x20 DUP2 ADD SWAP1 POP SWAP2 SWAP1 POP JUMP JUMPDEST PUSH1 0x0 DUP2 SWAP1 POP PUSH1 0x20 DUP3 ADD SWAP1 POP SWAP2 SWAP1 POP JUMP JUMPDEST PUSH1 0x0 DUP2 MLOAD SWAP1 POP SWAP2 SWAP1 POP JUMP JUMPDEST PUSH1 0x0 DUP2 MLOAD SWAP1 POP SWAP2 SWAP1 POP JUMP JUMPDEST PUSH1 0x0 PUSH1 0x20 DUP3 ADD SWAP1 POP SWAP2 SWAP1 POP JUMP JUMPDEST PUSH1 0x0 DUP3 DUP3 MSTORE PUSH1 0x20 DUP3 ADD SWAP1 POP SWAP3 SWAP2 POP POP JUMP JUMPDEST PUSH1 0x0 DUP3 DUP3 MSTORE PUSH1 0x20 DUP3 ADD SWAP1 POP SWAP3 SWAP2 POP POP JUMP JUMPDEST PUSH1 0x0 DUP3 DUP3 MSTORE PUSH1 0x20 DUP3 ADD SWAP1 POP SWAP3 SWAP2 POP POP JUMP JUMPDEST PUSH1 0x0 PUSH2 0x1629 DUP3 PUSH2 0x1771 JUMP JUMPDEST SWAP2 POP PUSH2 0x1634 DUP4 PUSH2 0x1771 JUMP JUMPDEST SWAP3 POP DUP3 PUSH32 0xFFFFFFFFFFFFFFFFFFFFFFFFFFFFFFFFFFFFFFFFFFFFFFFFFFFFFFFFFFFFFFFF SUB DUP3 GT ISZERO PUSH2 0x1669 JUMPI PUSH2 0x1668 PUSH2 0x1838 JUMP JUMPDEST JUMPDEST DUP3 DUP3 ADD SWAP1 POP SWAP3 SWAP2 POP POP JUMP JUMPDEST PUSH1 0x0 PUSH2 0x167F DUP3 PUSH2 0x1771 JUMP JUMPDEST SWAP2 POP PUSH2 0x168A DUP4 PUSH2 0x1771 JUMP JUMPDEST SWAP3 POP DUP3 PUSH2 0x169A JUMPI PUSH2 0x1699 PUSH2 0x1867 JUMP JUMPDEST JUMPDEST DUP3 DUP3 DIV SWAP1 POP SWAP3 SWAP2 POP POP JUMP JUMPDEST PUSH1 0x0 PUSH2 0x16B0 DUP3 PUSH2 0x1771 JUMP JUMPDEST SWAP2 POP PUSH2 0x16BB DUP4 PUSH2 0x1771 JUMP JUMPDEST SWAP3 POP DUP2 PUSH32 0xFFFFFFFFFFFFFFFFFFFFFFFFFFFFFFFFFFFFFFFFFFFFFFFFFFFFFFFFFFFFFFFF DIV DUP4 GT DUP3 ISZERO ISZERO AND ISZERO PUSH2 0x16F4 JUMPI PUSH2 0x16F3 PUSH2 0x1838 JUMP JUMPDEST JUMPDEST DUP3 DUP3 MUL SWAP1 POP SWAP3 SWAP2 POP POP JUMP JUMPDEST PUSH1 0x0 PUSH2 0x170A DUP3 PUSH2 0x1771 JUMP JUMPDEST SWAP2 POP PUSH2 0x1715 DUP4 PUSH2 0x1771 JUMP JUMPDEST SWAP3 POP DUP3 DUP3 LT ISZERO PUSH2 0x1728 JUMPI PUSH2 0x1727 PUSH2 0x1838 JUMP JUMPDEST JUMPDEST DUP3 DUP3 SUB SWAP1 POP SWAP3 SWAP2 POP POP JUMP JUMPDEST PUSH1 0x0 PUSH2 0x173E DUP3 PUSH2 0x1751 JUMP JUMPDEST SWAP1 POP SWAP2 SWAP1 POP JUMP JUMPDEST PUSH1 0x0 DUP2 ISZERO ISZERO SWAP1 POP SWAP2 SWAP1 POP JUMP JUMPDEST PUSH1 0x0 PUSH20 0xFFFFFFFFFFFFFFFFFFFFFFFFFFFFFFFFFFFFFFFF DUP3 AND SWAP1 POP SWAP2 SWAP1 POP JUMP JUMPDEST PUSH1 0x0 DUP2 SWAP1 POP SWAP2 SWAP1 POP JUMP JUMPDEST DUP3 DUP2 DUP4 CALLDATACOPY PUSH1 0x0 DUP4 DUP4 ADD MSTORE POP POP POP JUMP JUMPDEST PUSH1 0x0 JUMPDEST DUP4 DUP2 LT ISZERO PUSH2 0x17A8 JUMPI DUP1 DUP3 ADD MLOAD DUP2 DUP5 ADD MSTORE PUSH1 0x20 DUP2 ADD SWAP1 POP PUSH2 0x178D JUMP JUMPDEST DUP4 DUP2 GT ISZERO PUSH2 0x17B7 JUMPI PUSH1 0x0 DUP5 DUP5 ADD MSTORE JUMPDEST POP POP POP POP JUMP JUMPDEST PUSH1 0x0 PUSH1 0x2 DUP3 DIV SWAP1 POP PUSH1 0x1 DUP3 AND DUP1 PUSH2 0x17D5 JUMPI PUSH1 0x7F DUP3 AND SWAP2 POP JUMPDEST PUSH1 0x20 DUP3 LT DUP2 EQ ISZERO PUSH2 0x17E9 JUMPI PUSH2 0x17E8 PUSH2 0x1896 JUMP JUMPDEST JUMPDEST POP SWAP2 SWAP1 POP JUMP JUMPDEST PUSH1 0x0 PUSH2 0x17FA DUP3 PUSH2 0x1771 JUMP JUMPDEST SWAP2 POP PUSH32 0xFFFFFFFFFFFFFFFFFFFFFFFFFFFFFFFFFFFFFFFFFFFFFFFFFFFFFFFFFFFFFFFF DUP3 EQ ISZERO PUSH2 0x182D JUMPI PUSH2 0x182C PUSH2 0x1838 JUMP JUMPDEST JUMPDEST PUSH1 0x1 DUP3 ADD SWAP1 POP SWAP2 SWAP1 POP JUMP JUMPDEST PUSH32 0x4E487B7100000000000000000000000000000000000000000000000000000000 PUSH1 0x0 MSTORE PUSH1 0x11 PUSH1 0x4 MSTORE PUSH1 0x24 PUSH1 0x0 REVERT JUMPDEST PUSH32 0x4E487B7100000000000000000000000000000000000000000000000000000000 PUSH1 0x0 MSTORE PUSH1 0x12 PUSH1 0x4 MSTORE PUSH1 0x24 PUSH1 0x0 REVERT JUMPDEST PUSH32 0x4E487B7100000000000000000000000000000000000000000000000000000000 PUSH1 0x0 MSTORE PUSH1 0x22 PUSH1 0x4 MSTORE PUSH1 0x24 PUSH1 0x0 REVERT JUMPDEST PUSH32 0x4E487B7100000000000000000000000000000000000000000000000000000000 PUSH1 0x0 MSTORE PUSH1 0x41 PUSH1 0x4 MSTORE PUSH1 0x24 PUSH1 0x0 REVERT JUMPDEST PUSH1 0x0 PUSH1 0x1F NOT PUSH1 0x1F DUP4 ADD AND SWAP1 POP SWAP2 SWAP1 POP JUMP JUMPDEST PUSH2 0x190E DUP2 PUSH2 0x1733 JUMP JUMPDEST DUP2 EQ PUSH2 0x1919 JUMPI PUSH1 0x0 DUP1 REVERT JUMPDEST POP JUMP JUMPDEST PUSH2 0x1925 DUP2 PUSH2 0x1771 JUMP JUMPDEST DUP2 EQ PUSH2 0x1930 JUMPI PUSH1 0x0 DUP1 REVERT JUMPDEST POP JUMP INVALID LOG2 PUSH5 0x6970667358 0x22 SLT KECCAK256 0xB5 0xCE ORIGIN PUSH32 0x383004FE3A8146CA78161999A9540C25C777659067EE89CE46F17F2864736F6C PUSH4 0x43000800 STOP CALLER "},"methodIdentifiers":{"getAllProperties()":"3d51402c","getMyTokens(uint256)":"08d32039","listProperty(string,string,string,uint256,uint256)":"1265d847","properties(uint256)":"f7b10808","propertyCount()":"c361a335","purchaseTokens(uint256,uint256)":"8bf0af3e","userTokens(address,uint256)":"f9f411d8"}}}}}