{
  "_format": "hh-sol-artifact-1",
  "contractName": "RealEstateContract",
  "sourceName": "contracts/RealEstateContract.sol",
  "abi": [
    {
      "anonymous": false,
      "inputs": [
        {
          "indexed": true,
          "internalType": "uint256",
          "name": "id",
          "type": "uint256"
        },
        {
          "indexed": false,
          "internalType": "string",
          "name": "name",
          "type": "string"
        },
        {
          "indexed": false,
          "internalType": "uint256",
          "name": "price",
          "type": "uint256"
        }
      ],
      "name": "PropertyListed",
      "type": "event"
    },
    {
      "anonymous": false,
      "inputs": [
        {
          "indexed": true,
          "internalType": "uint256",
          "name": "propertyId",
          "type": "uint256"
        },
        {
          "indexed": false,
          "internalType": "address",
          "name": "buyer",
          "type": "address"
        },
        {
          "indexed": false,
          "internalType": "uint256",
          "name": "tokens",
          "type": "uint256"
        }
      ],
      "name": "TokensPurchased",
      "type": "event"
    },
    {
      "inputs": [],
      "name": "getAllProperties",
      "outputs": [
        {
          "components": [
            {
              "internalType": "uint256",
              "name": "id",
              "type": "uint256"
            },
            {
              "internalType": "address",
              "name": "owner",
              "type": "address"
            },
            {
              "internalType": "string",
              "name": "name",
              "type": "string"
            },
            {
              "internalType": "string",
              "name": "location",
              "type": "string"
            },
            {
              "internalType": "string",
              "name": "imageUrl",
              "type": "string"
            },
            {
              "internalType": "uint256",
              "name": "price",
              "type": "uint256"
            },
            {
              "internalType": "bool",
              "name": "isAvailable",
              "type": "bool"
            },
            {
              "internalType": "uint256",
              "name": "tokenPrice",
              "type": "uint256"
            },
            {
              "internalType": "uint256",
              "name": "totalTokens",
              "type": "uint256"
            },
            {
              "internalType": "uint256",
              "name": "availableTokens",
              "type": "uint256"
            }
          ],
          "internalType": "struct RealEstateContract.Property[]",
          "name": "",
          "type": "tuple[]"
        }
      ],
      "stateMutability": "view",
      "type": "function"
    },
    {
      "inputs": [
        {
          "internalType": "uint256",
          "name": "_propertyId",
          "type": "uint256"
        }
      ],
      "name": "getMyTokens",
      "outputs": [
        {
          "internalType": "uint256",
          "name": "",
          "type": "uint256"
        }
      ],
      "stateMutability": "view",
      "type": "function"
    },
    {
      "inputs": [
        {
          "internalType": "string",
          "name": "_name",
          "type": "string"
        },
        {
          "internalType": "string",
          "name": "_location",
          "type": "string"
        },
        {
          "internalType": "string",
          "name": "_imageUrl",
          "type": "string"
        },
        {
          "internalType": "uint256",
          "name": "_price",
          "type": "uint256"
        },
        {
          "internalType": "uint256",
          "name": "_totalTokens",
          "type": "uint256"
        }
      ],
      "name": "listProperty",
      "outputs": [],
      "stateMutability": "nonpayable",
      "type": "function"
    },
    {
      "inputs": [
        {
          "internalType": "uint256",
          "name": "",
          "type": "uint256"
        }
      ],
      "name": "properties",
      "outputs": [
        {
          "internalType": "uint256",
          "name": "id",
          "type": "uint256"
        },
        {
          "internalType": "address",
          "name": "owner",
          "type": "address"
        },
        {
          "internalType": "string",
          "name": "name",
          "type": "string"
        },
        {
          "internalType": "string",
          "name": "location",
          "type": "string"
        },
        {
          "internalType": "string",
          "name": "imageUrl",
          "type": "string"
        },
        {
          "internalType": "uint256",
          "name": "price",
          "type": "uint256"
        },
        {
          "internalType": "bool",
          "name": "isAvailable",
          "type": "bool"
        },
        {
          "internalType": "uint256",
          "name": "tokenPrice",
          "type": "uint256"
        },
        {
          "internalType": "uint256",
          "name": "totalTokens",
          "type": "uint256"
        },
        {
          "internalType": "uint256",
          "name": "availableTokens",
          "type": "uint256"
        }
      ],
      "stateMutability": "view",
      "type": "function"
    },
    {
      "inputs": [],
      "name": "propertyCount",
      "outputs": [
        {
          "internalType": "uint256",
          "name": "",
          "type": "uint256"
        }
      ],
      "stateMutability": "view",
      "type": "function"
    },
    {
      "inputs": [
        {
          "internalType": "uint256",
          "name": "_propertyId",
          "type": "uint256"
        },
        {
          "internalType": "uint256",
          "name": "_numberOfTokens",
          "type": "uint256"
        }
      ],
      "name": "purchaseTokens",
      "outputs": [],
      "stateMutability": "payable",
      "type": "function"
    },
    {
      "inputs": [
        {
          "internalType": "address",
          "name": "",
          "type": "address"
        },
        {
          "internalType": "uint256",
          "name": "",
          "type": "uint256"
        }
      ],
      "name": "userTokens",
      "outputs": [
        {
          "internalType": "uint256",
          "name": "",
          "type": "uint256"
        }
      ],
      "stateMutability": "view",
      "type": "function"
    }
  ],
  "bytecode": "0x6080604052600060015534801561001557600080fd5b50611b72806100256000396000f3fe6080604052600436106100705760003560e01c80638bf0af3e1161004e5780638bf0af3e14610106578063c361a33514610122578063f7b108081461014d578063f9f411d81461019357610070565b806308d32039146100755780631265d847146100b25780633d51402c146100db575b600080fd5b34801561008157600080fd5b5061009c60048036038101906100979190610cc0565b6101d0565b6040516100a99190610cfc565b60405180910390f35b3480156100be57600080fd5b506100d960048036038101906100d49190610e5d565b61022a565b005b3480156100e757600080fd5b506100f0610471565b6040516100fd91906111c0565b60405180910390f35b610120600480360381019061011b91906111e2565b610799565b005b34801561012e57600080fd5b506101376109c7565b6040516101449190610cfc565b60405180910390f35b34801561015957600080fd5b50610174600480360381019061016f9190610cc0565b6109cd565b60405161018a9a9998979695949392919061128a565b60405180910390f35b34801561019f57600080fd5b506101ba60048036038101906101b59190611367565b610be6565b6040516101c79190610cfc565b60405180910390f35b6000600260003373ffffffffffffffffffffffffffffffffffffffff1673ffffffffffffffffffffffffffffffffffffffff1681526020019081526020016000206000838152602001908152602001600020549050919050565b6000821161026d576040517f08c379a0000000000000000000000000000000000000000000000000000000008152600401610264906113f3565b60405180910390fd5b600081116102b0576040517f08c379a00000000000000000000000000000000000000000000000000000000081526004016102a790611485565b60405180910390fd5b600160008154809291906102c3906114d4565b9190505550600081836102d6919061154b565b905060405180610140016040528060015481526020013373ffffffffffffffffffffffffffffffffffffffff1681526020018781526020018681526020018581526020018481526020016001151581526020018281526020018381526020018381525060008060015481526020019081526020016000206000820151816000015560208201518160010160006101000a81548173ffffffffffffffffffffffffffffffffffffffff021916908373ffffffffffffffffffffffffffffffffffffffff16021790555060408201518160020190816103b39190611788565b5060608201518160030190816103c99190611788565b5060808201518160040190816103df9190611788565b5060a0820151816005015560c08201518160060160006101000a81548160ff02191690831515021790555060e08201518160070155610100820151816008015561012082015181600901559050506001547fb906962cbf3f3ecd490633cbf2018014c57107262f8d80f40a11ca0e8b31f2aa878560405161046192919061185a565b60405180910390a2505050505050565b6060600060015467ffffffffffffffff81111561049157610490610d32565b5b6040519080825280602002602001820160405280156104ca57816020015b6104b7610c0b565b8152602001906001900390816104af5790505b5090506000600190505b60015481116107915760008082815260200190815260200160002060405180610140016040529081600082015481526020016001820160009054906101000a900473ffffffffffffffffffffffffffffffffffffffff1673ffffffffffffffffffffffffffffffffffffffff1673ffffffffffffffffffffffffffffffffffffffff16815260200160028201805461056b906115ab565b80601f0160208091040260200160405190810160405280929190818152602001828054610597906115ab565b80156105e45780601f106105b9576101008083540402835291602001916105e4565b820191906000526020600020905b8154815290600101906020018083116105c757829003601f168201915b505050505081526020016003820180546105fd906115ab565b80601f0160208091040260200160405190810160405280929190818152602001828054610629906115ab565b80156106765780601f1061064b57610100808354040283529160200191610676565b820191906000526020600020905b81548152906001019060200180831161065957829003601f168201915b5050505050815260200160048201805461068f906115ab565b80601f01602080910402602001604051908101604052809291908181526020018280546106bb906115ab565b80156107085780601f106106dd57610100808354040283529160200191610708565b820191906000526020600020905b8154815290600101906020018083116106eb57829003601f168201915b50505050508152602001600582015481526020016006820160009054906101000a900460ff16151515158152602001600782015481526020016008820154815260200160098201548152505082600183610762919061188a565b81518110610773576107726118be565b5b60200260200101819052508080610789906114d4565b9150506104d4565b508091505090565b600080600084815260200190815260200160002090508060060160009054906101000a900460ff16610800576040517f08c379a00000000000000000000000000000000000000000000000000000000081526004016107f790611939565b60405180910390fd5b60008211610843576040517f08c379a000000000000000000000000000000000000000000000000000000000815260040161083a906119a5565b60405180910390fd5b806009015482111561088a576040517f08c379a000000000000000000000000000000000000000000000000000000000815260040161088190611a11565b60405180910390fd5b81816007015461089a9190611a31565b3410156108dc576040517f08c379a00000000000000000000000000000000000000000000000000000000081526004016108d390611abf565b60405180910390fd5b818160090160008282546108f0919061188a565b9250508190555081600260003373ffffffffffffffffffffffffffffffffffffffff1673ffffffffffffffffffffffffffffffffffffffff168152602001908152602001600020600085815260200190815260200160002060008282546109579190611adf565b9250508190555060008160090154036109885760008160060160006101000a81548160ff0219169083151502179055505b827faf357506555a8fdf38c81d9a8fa2c6bca372e817f179cf596c9645902a927aea33846040516109ba929190611b13565b60405180910390a2505050565b60015481565b60006020528060005260406000206000915090508060000154908060010160009054906101000a900473ffffffffffffffffffffffffffffffffffffffff1690806002018054610a1c906115ab565b80601f0160208091040260200160405190810160405280929190818152602001828054610a48906115ab565b8015610a955780601f10610a6a57610100808354040283529160200191610a95565b820191906000526020600020905b815481529060010190602001808311610a7857829003601f168201915b505050505090806003018054610aaa906115ab565b80601f0160208091040260200160405190810160405280929190818152602001828054610ad6906115ab565b8015610b235780601f10610af857610100808354040283529160200191610b23565b820191906000526020600020905b815481529060010190602001808311610b0657829003601f168201915b505050505090806004018054610b38906115ab565b80601f0160208091040260200160405190810160405280929190818152602001828054610b64906115ab565b8015610bb15780601f10610b8657610100808354040283529160200191610bb1565b820191906000526020600020905b815481529060010190602001808311610b9457829003601f168201915b5050505050908060050154908060060160009054906101000a900460ff1690806007015490806008015490806009015490508a565b6002602052816000526040600020602052806000526040600020600091509150505481565b60405180610140016040528060008152602001600073ffffffffffffffffffffffffffffffffffffffff168152602001606081526020016060815260200160608152602001600081526020016000151581526020016000815260200160008152602001600081525090565b6000604051905090565b600080fd5b600080fd5b6000819050919050565b610c9d81610c8a565b8114610ca857600080fd5b50565b600081359050610cba81610c94565b92915050565b600060208284031215610cd657610cd5610c80565b5b6000610ce484828501610cab565b91505092915050565b610cf681610c8a565b82525050565b6000602082019050610d116000830184610ced565b92915050565b600080fd5b600080fd5b6000601f19601f8301169050919050565b7f4e487b7100000000000000000000000000000000000000000000000000000000600052604160045260246000fd5b610d6a82610d21565b810181811067ffffffffffffffff82111715610d8957610d88610d32565b5b80604052505050565b6000610d9c610c76565b9050610da88282610d61565b919050565b600067ffffffffffffffff821115610dc857610dc7610d32565b5b610dd182610d21565b9050602081019050919050565b82818337600083830152505050565b6000610e00610dfb84610dad565b610d92565b905082815260208101848484011115610e1c57610e1b610d1c565b5b610e27848285610dde565b509392505050565b600082601f830112610e4457610e43610d17565b5b8135610e54848260208601610ded565b91505092915050565b600080600080600060a08688031215610e7957610e78610c80565b5b600086013567ffffffffffffffff811115610e9757610e96610c85565b5b610ea388828901610e2f565b955050602086013567ffffffffffffffff811115610ec457610ec3610c85565b5b610ed088828901610e2f565b945050604086013567ffffffffffffffff811115610ef157610ef0610c85565b5b610efd88828901610e2f565b9350506060610f0e88828901610cab565b9250506080610f1f88828901610cab565b9150509295509295909350565b600081519050919050565b600082825260208201905092915050565b6000819050602082019050919050565b610f6181610c8a565b82525050565b600073ffffffffffffffffffffffffffffffffffffffff82169050919050565b6000610f9282610f67565b9050919050565b610fa281610f87565b82525050565b600081519050919050565b600082825260208201905092915050565b60005b83811015610fe2578082015181840152602081019050610fc7565b60008484015250505050565b6000610ff982610fa8565b6110038185610fb3565b9350611013818560208601610fc4565b61101c81610d21565b840191505092915050565b60008115159050919050565b61103c81611027565b82525050565b60006101408301600083015161105b6000860182610f58565b50602083015161106e6020860182610f99565b50604083015184820360408601526110868282610fee565b915050606083015184820360608601526110a08282610fee565b915050608083015184820360808601526110ba8282610fee565b91505060a08301516110cf60a0860182610f58565b5060c08301516110e260c0860182611033565b5060e08301516110f560e0860182610f58565b5061010083015161110a610100860182610f58565b5061012083015161111f610120860182610f58565b508091505092915050565b60006111368383611042565b905092915050565b6000602082019050919050565b600061115682610f2c565b6111608185610f37565b93508360208202850161117285610f48565b8060005b858110156111ae578484038952815161118f858261112a565b945061119a8361113e565b925060208a01995050600181019050611176565b50829750879550505050505092915050565b600060208201905081810360008301526111da818461114b565b905092915050565b600080604083850312156111f9576111f8610c80565b5b600061120785828601610cab565b925050602061121885828601610cab565b9150509250929050565b61122b81610f87565b82525050565b600082825260208201905092915050565b600061124d82610fa8565b6112578185611231565b9350611267818560208601610fc4565b61127081610d21565b840191505092915050565b61128481611027565b82525050565b6000610140820190506112a0600083018d610ced565b6112ad602083018c611222565b81810360408301526112bf818b611242565b905081810360608301526112d3818a611242565b905081810360808301526112e78189611242565b90506112f660a0830188610ced565b61130360c083018761127b565b61131060e0830186610ced565b61131e610100830185610ced565b61132c610120830184610ced565b9b9a5050505050505050505050565b61134481610f87565b811461134f57600080fd5b50565b6000813590506113618161133b565b92915050565b6000806040838503121561137e5761137d610c80565b5b600061138c85828601611352565b925050602061139d85828601610cab565b9150509250929050565b7f5072696365206d7573742062652067726561746572207468616e203000000000600082015250565b60006113dd601c83611231565b91506113e8826113a7565b602082019050919050565b6000602082019050818103600083015261140c816113d0565b9050919050565b7f546f74616c20746f6b656e73206d75737420626520677265617465722074686160008201527f6e20300000000000000000000000000000000000000000000000000000000000602082015250565b600061146f602383611231565b915061147a82611413565b604082019050919050565b6000602082019050818103600083015261149e81611462565b9050919050565b7f4e487b7100000000000000000000000000000000000000000000000000000000600052601160045260246000fd5b60006114df82610c8a565b91507fffffffffffffffffffffffffffffffffffffffffffffffffffffffffffffffff8203611511576115106114a5565b5b600182019050919050565b7f4e487b7100000000000000000000000000000000000000000000000000000000600052601260045260246000fd5b600061155682610c8a565b915061156183610c8a565b9250826115715761157061151c565b5b828204905092915050565b7f4e487b7100000000000000000000000000000000000000000000000000000000600052602260045260246000fd5b600060028204905060018216806115c357607f821691505b6020821081036115d6576115d561157c565b5b50919050565b60008190508160005260206000209050919050565b60006020601f8301049050919050565b600082821b905092915050565b60006008830261163e7fffffffffffffffffffffffffffffffffffffffffffffffffffffffffffffffff82611601565b6116488683611601565b95508019841693508086168417925050509392505050565b6000819050919050565b600061168561168061167b84610c8a565b611660565b610c8a565b9050919050565b6000819050919050565b61169f8361166a565b6116b36116ab8261168c565b84845461160e565b825550505050565b600090565b6116c86116bb565b6116d3818484611696565b505050565b5b818110156116f7576116ec6000826116c0565b6001810190506116d9565b5050565b601f82111561173c5761170d816115dc565b611716846115f1565b81016020851015611725578190505b611739611731856115f1565b8301826116d8565b50505b505050565b600082821c905092915050565b600061175f60001984600802611741565b1980831691505092915050565b6000611778838361174e565b9150826002028217905092915050565b61179182610fa8565b67ffffffffffffffff8111156117aa576117a9610d32565b5b6117b482546115ab565b6117bf8282856116fb565b600060209050601f8311600181146117f257600084156117e0578287015190505b6117ea858261176c565b865550611852565b601f198416611800866115dc565b60005b8281101561182857848901518255600182019150602085019450602081019050611803565b868310156118455784890151611841601f89168261174e565b8355505b6001600288020188555050505b505050505050565b600060408201905081810360008301526118748185611242565b90506118836020830184610ced565b9392505050565b600061189582610c8a565b91506118a083610c8a565b92508282039050818111156118b8576118b76114a5565b5b92915050565b7f4e487b7100000000000000000000000000000000000000000000000000000000600052603260045260246000fd5b7f50726f7065727479206973206e6f7420617661696c61626c6500000000000000600082015250565b6000611923601983611231565b915061192e826118ed565b602082019050919050565b6000602082019050818103600083015261195281611916565b9050919050565b7f4d757374207075726368617365206174206c65617374206f6e6520746f6b656e600082015250565b600061198f602083611231565b915061199a82611959565b602082019050919050565b600060208201905081810360008301526119be81611982565b9050919050565b7f4e6f7420656e6f75676820746f6b656e7320617661696c61626c650000000000600082015250565b60006119fb601b83611231565b9150611a06826119c5565b602082019050919050565b60006020820190508181036000830152611a2a816119ee565b9050919050565b6000611a3c82610c8a565b9150611a4783610c8a565b9250828202611a5581610c8a565b91508282048414831517611a6c57611a6b6114a5565b5b5092915050565b7f496e73756666696369656e74207061796d656e74000000000000000000000000600082015250565b6000611aa9601483611231565b9150611ab482611a73565b602082019050919050565b60006020820190508181036000830152611ad881611a9c565b9050919050565b6000611aea82610c8a565b9150611af583610c8a565b9250828201905080821115611b0d57611b0c6114a5565b5b92915050565b6000604082019050611b286000830185611222565b611b356020830184610ced565b939250505056fea26469706673582212200b8acea1d8fe8b15fc3d8db27b4854342282725ab5e0aaa86f2b3844792a9e7964736f6c63430008130033",
  "linkReferences": {},
  "deployedLinkReferences": {}
}