{
  "_format": "hh-sol-artifact-1",
  "contractName": "RealEstateContract",
  "sourceName": "contracts/RealEstateContract.sol",
  "abi": [
    {
      "anonymous": false,
      "inputs": [
        {
          "indexed": true,
          "internalType": "uint256",
          "name": "id",
          "type": "uint256"
        },
        {
          "indexed": false,
          "internalType": "string",
          "name": "name",
          "type": "string"
        },
        {
          "indexed": false,
          "internalType": "uint256",
          "name": "price",
          "type": "uint256"
        }
      ],
      "name": "PropertyListed",
      "type": "event"
    },
    {
      "anonymous": false,
      "inputs": [
        {
          "indexed": true,
          "internalType": "uint256",
          "name": "propertyId",
          "type": "uint256"
        },
        {
          "indexed": false,
          "internalType": "address",
          "name": "buyer",
          "type": "address"
        },
        {
          "indexed": false,
          "internalType": "uint256",
          "name": "tokens",
          "type": "uint256"
        }
      ],
      "name": "TokensPurchased",
      "type": "event"
    },
    {
      "inputs": [],
      "name": "getAllProperties",
      "outputs": [
        {
          "components": [
            {
              "internalType": "uint256",
              "name": "id",
              "type": "uint256"
            },
            {
              "internalType": "address",
              "name": "owner",
              "type": "address"
            },
            {
              "internalType": "string",
              "name": "name",
              "type": "string"
            },
            {
              "internalType": "string",
              "name": "location",
              "type": "string"
            },
            {
              "internalType": "string",
              "name": "imageUrl",
              "type": "string"
            },
            {
              "internalType": "uint256",
              "name": "price",
              "type": "uint256"
            },
            {
              "internalType": "bool",
              "name": "isAvailable",
              "type": "bool"
            },
            {
              "internalType": "uint256",
              "name": "tokenPrice",
              "type": "uint256"
            },
            {
              "internalType": "uint256",
              "name": "totalTokens",
              "type": "uint256"
            },
            {
              "internalType": "uint256",
              "name": "availableTokens",
              "type": "uint256"
            }
          ],
          "internalType": "struct RealEstateContract.Property[]",
          "name": "",
          "type": "tuple[]"
        }
      ],
      "stateMutability": "view",
      "type": "function"
    },
    {
      "inputs": [
        {
          "internalType": "uint256",
          "name": "_propertyId",
          "type": "uint256"
        }
      ],
      "name": "getMyTokens",
      "outputs": [
        {
          "internalType": "uint256",
          "name": "",
          "type": "uint256"
        }
      ],
      "stateMutability": "view",
      "type": "function"
    },
    {
      "inputs": [
        {
          "internalType": "string",
          "name": "_name",
          "type": "string"
        },
        {
          "internalType": "string",
          "name": "_location",
          "type": "string"
        },
        {
          "internalType": "string",
          "name": "_imageUrl",
          "type": "string"
        },
        {
          "internalType": "uint256",
          "name": "_price",
          "type": "uint256"
        },
        {
          "internalType": "uint256",
          "name": "_totalTokens",
          "type": "uint256"
        }
      ],
      "name": "listProperty",
      "outputs": [],
      "stateMutability": "nonpayable",
      "type": "function"
    },
    {
      "inputs": [
        {
          "internalType": "uint256",
          "name": "",
          "type": "uint256"
        }
      ],
      "name": "properties",
      "outputs": [
        {
          "internalType": "uint256",
          "name": "id",
          "type": "uint256"
        },
        {
          "internalType": "address",
          "name": "owner",
          "type": "address"
        },
        {
          "internalType": "string",
          "name": "name",
          "type": "string"
        },
        {
          "internalType": "string",
          "name": "location",
          "type": "string"
        },
        {
          "internalType": "string",
          "name": "imageUrl",
          "type": "string"
        },
        {
          "internalType": "uint256",
          "name": "price",
          "type": "uint256"
        },
        {
          "internalType": "bool",
          "name": "isAvailable",
          "type": "bool"
        },
        {
          "internalType": "uint256",
          "name": "tokenPrice",
          "type": "uint256"
        },
        {
          "internalType": "uint256",
          "name": "totalTokens",
          "type": "uint256"
        },
        {
          "internalType": "uint256",
          "name": "availableTokens",
          "type": "uint256"
        }
      ],
      "stateMutability": "view",
      "type": "function"
    },
    {
      "inputs": [],
      "name": "propertyCount",
      "outputs": [
        {
          "internalType": "uint256",
          "name": "",
          "type": "uint256"
        }
      ],
      "stateMutability": "view",
      "type": "function"
    },
    {
      "inputs": [
        {
          "internalType": "uint256",
          "name": "_propertyId",
          "type": "uint256"
        },
        {
          "internalType": "uint256",
          "name": "_numberOfTokens",
          "type": "uint256"
        }
      ],
      "name": "purchaseTokens",
      "outputs": [],
      "stateMutability": "payable",
      "type": "function"
    },
    {
      "inputs": [
        {
          "internalType": "address",
          "name": "",
          "type": "address"
        },
        {
          "internalType": "uint256",
          "name": "",
          "type": "uint256"
        }
      ],
      "name": "userTokens",
      "outputs": [
        {
          "internalType": "uint256",
          "name": "",
          "type": "uint256"
        }
      ],
      "stateMutability": "view",
      "type": "function"
    }
  ],
  "bytecode": "0x6080604052600060015534801561001557600080fd5b50611969806100256000396000f3fe6080604052600436106100705760003560e01c80638bf0af3e1161004e5780638bf0af3e14610106578063c361a33514610122578063f7b108081461014d578063f9f411d81461019357610070565b806308d32039146100755780631265d847146100b25780633d51402c146100db575b600080fd5b34801561008157600080fd5b5061009c60048036038101906100979190610f08565b6101d0565b6040516100a9919061148b565b60405180910390f35b3480156100be57600080fd5b506100d960048036038101906100d49190610e49565b61022a565b005b3480156100e757600080fd5b506100f0610486565b6040516100fd9190611379565b60405180910390f35b610120600480360381019061011b9190610f31565b6107fa565b005b34801561012e57600080fd5b50610137610a29565b604051610144919061148b565b60405180910390f35b34801561015957600080fd5b50610174600480360381019061016f9190610f08565b610a2f565b60405161018a9a999897969594939291906114a6565b60405180910390f35b34801561019f57600080fd5b506101ba60048036038101906101b59190610e0d565b610c48565b6040516101c7919061148b565b60405180910390f35b6000600260003373ffffffffffffffffffffffffffffffffffffffff1673ffffffffffffffffffffffffffffffffffffffff1681526020019081526020016000206000838152602001908152602001600020549050919050565b6000821161026d576040517f08c379a00000000000000000000000000000000000000000000000000000000081526004016102649061146b565b60405180910390fd5b600081116102b0576040517f08c379a00000000000000000000000000000000000000000000000000000000081526004016102a79061142b565b60405180910390fd5b600160008154809291906102c3906117ef565b9190505550600081836102d69190611674565b905060405180610140016040528060015481526020013373ffffffffffffffffffffffffffffffffffffffff1681526020018781526020018681526020018581526020018481526020016001151581526020018281526020018381526020018381525060008060015481526020019081526020016000206000820151816000015560208201518160010160006101000a81548173ffffffffffffffffffffffffffffffffffffffff021916908373ffffffffffffffffffffffffffffffffffffffff16021790555060408201518160020190805190602001906103ba929190610c6d565b5060608201518160030190805190602001906103d7929190610c6d565b5060808201518160040190805190602001906103f4929190610c6d565b5060a0820151816005015560c08201518160060160006101000a81548160ff02191690831515021790555060e08201518160070155610100820151816008015561012082015181600901559050506001547fb906962cbf3f3ecd490633cbf2018014c57107262f8d80f40a11ca0e8b31f2aa878560405161047692919061139b565b60405180910390a2505050505050565b6060600060015467ffffffffffffffff8111156104cc577f4e487b7100000000000000000000000000000000000000000000000000000000600052604160045260246000fd5b60405190808252806020026020018201604052801561050557816020015b6104f2610cf3565b8152602001906001900390816104ea5790505b5090506000600190505b60015481116107f25760008082815260200190815260200160002060405180610140016040529081600082015481526020016001820160009054906101000a900473ffffffffffffffffffffffffffffffffffffffff1673ffffffffffffffffffffffffffffffffffffffff1673ffffffffffffffffffffffffffffffffffffffff1681526020016002820180546105a6906117bd565b80601f01602080910402602001604051908101604052809291908181526020018280546105d2906117bd565b801561061f5780601f106105f45761010080835404028352916020019161061f565b820191906000526020600020905b81548152906001019060200180831161060257829003601f168201915b50505050508152602001600382018054610638906117bd565b80601f0160208091040260200160405190810160405280929190818152602001828054610664906117bd565b80156106b15780601f10610686576101008083540402835291602001916106b1565b820191906000526020600020905b81548152906001019060200180831161069457829003601f168201915b505050505081526020016004820180546106ca906117bd565b80601f01602080910402602001604051908101604052809291908181526020018280546106f6906117bd565b80156107435780601f1061071857610100808354040283529160200191610743565b820191906000526020600020905b81548152906001019060200180831161072657829003601f168201915b50505050508152602001600582015481526020016006820160009054906101000a900460ff1615151515815260200160078201548152602001600882015481526020016009820154815250508260018361079d91906116ff565b815181106107d4577f4e487b7100000000000000000000000000000000000000000000000000000000600052603260045260246000fd5b602002602001018190525080806107ea906117ef565b91505061050f565b508091505090565b600080600084815260200190815260200160002090508060060160009054906101000a900460ff16610861576040517f08c379a0000000000000000000000000000000000000000000000000000000008152600401610858906113cb565b60405180910390fd5b600082116108a4576040517f08c379a000000000000000000000000000000000000000000000000000000000815260040161089b9061144b565b60405180910390fd5b80600901548211156108eb576040517f08c379a00000000000000000000000000000000000000000000000000000000081526004016108e29061140b565b60405180910390fd5b8181600701546108fb91906116a5565b34101561093d576040517f08c379a0000000000000000000000000000000000000000000000000000000008152600401610934906113eb565b60405180910390fd5b8181600901600082825461095191906116ff565b9250508190555081600260003373ffffffffffffffffffffffffffffffffffffffff1673ffffffffffffffffffffffffffffffffffffffff168152602001908152602001600020600085815260200190815260200160002060008282546109b8919061161e565b925050819055506000816009015414156109ea5760008160060160006101000a81548160ff0219169083151502179055505b827faf357506555a8fdf38c81d9a8fa2c6bca372e817f179cf596c9645902a927aea3384604051610a1c929190611350565b60405180910390a2505050565b60015481565b60006020528060005260406000206000915090508060000154908060010160009054906101000a900473ffffffffffffffffffffffffffffffffffffffff1690806002018054610a7e906117bd565b80601f0160208091040260200160405190810160405280929190818152602001828054610aaa906117bd565b8015610af75780601f10610acc57610100808354040283529160200191610af7565b820191906000526020600020905b815481529060010190602001808311610ada57829003601f168201915b505050505090806003018054610b0c906117bd565b80601f0160208091040260200160405190810160405280929190818152602001828054610b38906117bd565b8015610b855780601f10610b5a57610100808354040283529160200191610b85565b820191906000526020600020905b815481529060010190602001808311610b6857829003601f168201915b505050505090806004018054610b9a906117bd565b80601f0160208091040260200160405190810160405280929190818152602001828054610bc6906117bd565b8015610c135780601f10610be857610100808354040283529160200191610c13565b820191906000526020600020905b815481529060010190602001808311610bf657829003601f168201915b5050505050908060050154908060060160009054906101000a900460ff1690806007015490806008015490806009015490508a565b6002602052816000526040600020602052806000526040600020600091509150505481565b828054610c79906117bd565b90600052602060002090601f016020900481019282610c9b5760008555610ce2565b82601f10610cb457805160ff1916838001178555610ce2565b82800160010185558215610ce2579182015b82811115610ce1578251825591602001919060010190610cc6565b5b509050610cef9190610d5e565b5090565b60405180610140016040528060008152602001600073ffffffffffffffffffffffffffffffffffffffff168152602001606081526020016060815260200160608152602001600081526020016000151581526020016000815260200160008152602001600081525090565b5b80821115610d77576000816000905550600101610d5f565b5090565b6000610d8e610d8984611588565b611557565b905082815260208101848484011115610da657600080fd5b610db184828561177b565b509392505050565b600081359050610dc881611905565b92915050565b600082601f830112610ddf57600080fd5b8135610def848260208601610d7b565b91505092915050565b600081359050610e078161191c565b92915050565b60008060408385031215610e2057600080fd5b6000610e2e85828601610db9565b9250506020610e3f85828601610df8565b9150509250929050565b600080600080600060a08688031215610e6157600080fd5b600086013567ffffffffffffffff811115610e7b57600080fd5b610e8788828901610dce565b955050602086013567ffffffffffffffff811115610ea457600080fd5b610eb088828901610dce565b945050604086013567ffffffffffffffff811115610ecd57600080fd5b610ed988828901610dce565b9350506060610eea88828901610df8565b9250506080610efb88828901610df8565b9150509295509295909350565b600060208284031215610f1a57600080fd5b6000610f2884828501610df8565b91505092915050565b60008060408385031215610f4457600080fd5b6000610f5285828601610df8565b9250506020610f6385828601610df8565b9150509250929050565b6000610f79838361124a565b905092915050565b610f8a81611733565b82525050565b610f9981611733565b82525050565b6000610faa826115c8565b610fb481856115eb565b935083602082028501610fc6856115b8565b8060005b858110156110025784840389528151610fe38582610f6d565b9450610fee836115de565b925060208a01995050600181019050610fca565b50829750879550505050505092915050565b61101d81611745565b82525050565b61102c81611745565b82525050565b600061103d826115d3565b61104781856115fc565b935061105781856020860161178a565b611060816118f4565b840191505092915050565b6000611076826115d3565b611080818561160d565b935061109081856020860161178a565b611099816118f4565b840191505092915050565b60006110b160198361160d565b91507f50726f7065727479206973206e6f7420617661696c61626c65000000000000006000830152602082019050919050565b60006110f160148361160d565b91507f496e73756666696369656e74207061796d656e740000000000000000000000006000830152602082019050919050565b6000611131601b8361160d565b91507f4e6f7420656e6f75676820746f6b656e7320617661696c61626c6500000000006000830152602082019050919050565b600061117160238361160d565b91507f546f74616c20746f6b656e73206d75737420626520677265617465722074686160008301527f6e203000000000000000000000000000000000000000000000000000000000006020830152604082019050919050565b60006111d760208361160d565b91507f4d757374207075726368617365206174206c65617374206f6e6520746f6b656e6000830152602082019050919050565b6000611217601c8361160d565b91507f5072696365206d7573742062652067726561746572207468616e2030000000006000830152602082019050919050565b6000610140830160008301516112636000860182611332565b5060208301516112766020860182610f81565b506040830151848203604086015261128e8282611032565b915050606083015184820360608601526112a88282611032565b915050608083015184820360808601526112c28282611032565b91505060a08301516112d760a0860182611332565b5060c08301516112ea60c0860182611014565b5060e08301516112fd60e0860182611332565b50610100830151611312610100860182611332565b50610120830151611327610120860182611332565b508091505092915050565b61133b81611771565b82525050565b61134a81611771565b82525050565b60006040820190506113656000830185610f90565b6113726020830184611341565b9392505050565b600060208201905081810360008301526113938184610f9f565b905092915050565b600060408201905081810360008301526113b5818561106b565b90506113c46020830184611341565b9392505050565b600060208201905081810360008301526113e4816110a4565b9050919050565b60006020820190508181036000830152611404816110e4565b9050919050565b6000602082019050818103600083015261142481611124565b9050919050565b6000602082019050818103600083015261144481611164565b9050919050565b60006020820190508181036000830152611464816111ca565b9050919050565b600060208201905081810360008301526114848161120a565b9050919050565b60006020820190506114a06000830184611341565b92915050565b6000610140820190506114bc600083018d611341565b6114c9602083018c610f90565b81810360408301526114db818b61106b565b905081810360608301526114ef818a61106b565b90508181036080830152611503818961106b565b905061151260a0830188611341565b61151f60c0830187611023565b61152c60e0830186611341565b61153a610100830185611341565b611548610120830184611341565b9b9a5050505050505050505050565b6000604051905081810181811067ffffffffffffffff8211171561157e5761157d6118c5565b5b8060405250919050565b600067ffffffffffffffff8211156115a3576115a26118c5565b5b601f19601f8301169050602081019050919050565b6000819050602082019050919050565b600081519050919050565b600081519050919050565b6000602082019050919050565b600082825260208201905092915050565b600082825260208201905092915050565b600082825260208201905092915050565b600061162982611771565b915061163483611771565b9250827fffffffffffffffffffffffffffffffffffffffffffffffffffffffffffffffff0382111561166957611668611838565b5b828201905092915050565b600061167f82611771565b915061168a83611771565b92508261169a57611699611867565b5b828204905092915050565b60006116b082611771565b91506116bb83611771565b9250817fffffffffffffffffffffffffffffffffffffffffffffffffffffffffffffffff04831182151516156116f4576116f3611838565b5b828202905092915050565b600061170a82611771565b915061171583611771565b92508282101561172857611727611838565b5b828203905092915050565b600061173e82611751565b9050919050565b60008115159050919050565b600073ffffffffffffffffffffffffffffffffffffffff82169050919050565b6000819050919050565b82818337600083830152505050565b60005b838110156117a857808201518184015260208101905061178d565b838111156117b7576000848401525b50505050565b600060028204905060018216806117d557607f821691505b602082108114156117e9576117e8611896565b5b50919050565b60006117fa82611771565b91507fffffffffffffffffffffffffffffffffffffffffffffffffffffffffffffffff82141561182d5761182c611838565b5b600182019050919050565b7f4e487b7100000000000000000000000000000000000000000000000000000000600052601160045260246000fd5b7f4e487b7100000000000000000000000000000000000000000000000000000000600052601260045260246000fd5b7f4e487b7100000000000000000000000000000000000000000000000000000000600052602260045260246000fd5b7f4e487b7100000000000000000000000000000000000000000000000000000000600052604160045260246000fd5b6000601f19601f8301169050919050565b61190e81611733565b811461191957600080fd5b50565b61192581611771565b811461193057600080fd5b5056fea2646970667358221220b5ce327f383004fe3a8146ca78161999a9540c25c777659067ee89ce46f17f2864736f6c63430008000033",
  "linkReferences": {},
  "deployedLinkReferences": {}
}